{"address":"0x1F4cF77Ec12133C38eC21f22786b19da82343EEe","bytecode":"0x60e06040523480156200001157600080fd5b50604051620021c9380380620021c983398101604081905262000034916200006e565b6001600160a01b03928316608052821660a0521660c052620000b8565b80516001600160a01b03811681146200006957600080fd5b919050565b6000806000606084860312156200008457600080fd5b6200008f8462000051565b92506200009f6020850162000051565b9150620000af6040850162000051565b90509250925092565b60805160a05160c0516120d4620000f5600039600061019901526000818160d5015281816102840152610db3015260006101c001526120d46000f3fe608060405234801561001057600080fd5b50600436106100885760003560e01c80635e5e6e0f1161005b5780635e5e6e0f146101815780638af3ac8514610194578063c45a0155146101bb578063cdca1753146101e257600080fd5b80632c8958f61461008d5780632f80bb1d146100a25780633119049a146100d05780635877c9b91461011c575b600080fd5b6100a061009b366004611a1f565b6101f5565b005b6100b56100b0366004611a6f565b610480565b6040516100c796959493929190611af3565b60405180910390f35b6100f77f000000000000000000000000000000000000000000000000000000000000000081565b60405173ffffffffffffffffffffffffffffffffffffffff90911681526020016100c7565b61012f61012a366004611c5b565b6106c7565b60408051968752602087019590955273ffffffffffffffffffffffffffffffffffffffff9093169385019390935263ffffffff166060840152608083019190915261ffff1660a082015260c0016100c7565b61012f61018f366004611c5b565b610940565b6100f77f000000000000000000000000000000000000000000000000000000000000000081565b6100f77f000000000000000000000000000000000000000000000000000000000000000081565b6100b56101f0366004611a6f565b610b32565b60008313806102045750600082135b61026f576040517f08c379a000000000000000000000000000000000000000000000000000000000815260206004820152601360248201527f5a65726f206c697175696469747920737761700000000000000000000000000060448201526064015b60405180910390fd5b60008061027b83610d6e565b915091506102aa7f00000000000000000000000000000000000000000000000000000000000000008383610d8f565b5060008060008088136102f6578473ffffffffffffffffffffffffffffffffffffffff168473ffffffffffffffffffffffffffffffffffffffff161087896102f190611ca6565b610330565b8373ffffffffffffffffffffffffffffffffffffffff168573ffffffffffffffffffffffffffffffffffffffff1610888861033090611ca6565b92509250925060006103428686610dac565b905060008060008373ffffffffffffffffffffffffffffffffffffffff1663e76c01e46040518163ffffffff1660e01b815260040160c060405180830381865afa158015610394573d6000803e3d6000fd5b505050506040513d601f19601f820116820180604052508101906103b89190611d02565b50505092509250925086156103ea5760405185815286602082015283604082015282606082015281608082015260e081fd5b6000541561045d57600054851461045d576040517f08c379a000000000000000000000000000000000000000000000000000000000815260206004820152601b60248201527f4e6f742072656365697665642066756c6c20616d6f756e744f757400000000006044820152606401610266565b60405185815286602082015283604082015282606082015281608082015260e081fd5b6000806060806000606061049388610dea565b67ffffffffffffffff8111156104ab576104ab611945565b6040519080825280602002602001820160405280156104d4578160200160208202803683370190505b5093506104e088610dea565b67ffffffffffffffff8111156104f8576104f8611945565b604051908082528060200260200182016040528015610521578160200160208202803683370190505b50925061052d88610dea565b67ffffffffffffffff81111561054557610545611945565b60405190808252806020026020018201604052801561056e578160200160208202803683370190505b50905060005b604080516080810182526000808252602082018190529181018290526060810182905290806105a28c610d6e565b73ffffffffffffffffffffffffffffffffffffffff9081168552166020840152505060408101899052600080806105d8846106c7565b8e8b815181106105ea576105ea611d89565b602002602001018e8c8151811061060357610603611d89565b602002602001018d8d8151811061061c5761061c611d89565b61ffff9094166020948502919091019093019290925263ffffffff909316905273ffffffffffffffffffffffffffffffffffffffff909216905291945092509050600085900361066a57829a505b819b5080876106799190611db8565b96508461068581611dcb565b9550506106918d610e05565b156106a65761069f8d610e28565b9c506106b4565b508a98506106bd9350505050565b50505050610574565b9295509295509295565b602081015181516000918291829182918291829173ffffffffffffffffffffffffffffffffffffffff8083169082161091839161070391610dac565b9050886060015173ffffffffffffffffffffffffffffffffffffffff166000036107305760408901516000555b60005a6020808c01518c516040519394506000936107849301606092831b7fffffffffffffffffffffffffffffffffffffffff00000000000000000000000090811682529190921b16601482015260280190565b60405160208183030381529060405290508273ffffffffffffffffffffffffffffffffffffffff1663128acb0830866107c08f60400151610e44565b6107c990611ca6565b8f6060015173ffffffffffffffffffffffffffffffffffffffff166000146107f5578f6060015161082e565b8861081e57610819600173fffd8963efd1fc6a506488495d951d5263988d26611e03565b61082e565b61082e6401000276a36001611e37565b866040518663ffffffff1660e01b815260040161084f959493929190611e64565b60408051808303816000875af19250505080156108a7575060408051601f3d9081017fffffffffffffffffffffffffffffffffffffffffffffffffffffffffffffffe01682019092526108a491810190611f0a565b60015b610930573d8080156108d5576040519150601f19603f3d011682016040523d82523d6000602084013e6108da565b606091505b505a6108e69084611f2e565b96508b6060015173ffffffffffffffffffffffffffffffffffffffff1660000361090f57600080555b61091a818589610e58565b9a509a509a509a509a509a505050505050610937565b5050505050505b91939550919395565b602081015181516000918291829182918291829173ffffffffffffffffffffffffffffffffffffffff8083169082161091839161097c91610dac565b905060005a8a516020808d01516040517fffffffffffffffffffffffffffffffffffffffff000000000000000000000000606094851b811693820193909352921b16603482015290915060009060480160405160208183030381529060405290508273ffffffffffffffffffffffffffffffffffffffff1663128acb083086610a088f60400151610e44565b8f6060015173ffffffffffffffffffffffffffffffffffffffff16600014610a34578f60600151610a6d565b88610a5d57610a58600173fffd8963efd1fc6a506488495d951d5263988d26611e03565b610a6d565b610a6d6401000276a36001611e37565b866040518663ffffffff1660e01b8152600401610a8e959493929190611e64565b60408051808303816000875af1925050508015610ae6575060408051601f3d9081017fffffffffffffffffffffffffffffffffffffffffffffffffffffffffffffffe0168201909252610ae391810190611f0a565b60015b610930573d808015610b14576040519150601f19603f3d011682016040523d82523d6000602084013e610b19565b606091505b505a610b259084611f2e565b965061091a818589610e58565b60008060608060006060610b4588610dea565b67ffffffffffffffff811115610b5d57610b5d611945565b604051908082528060200260200182016040528015610b86578160200160208202803683370190505b509350610b9288610dea565b67ffffffffffffffff811115610baa57610baa611945565b604051908082528060200260200182016040528015610bd3578160200160208202803683370190505b509250610bdf88610dea565b67ffffffffffffffff811115610bf757610bf7611945565b604051908082528060200260200182016040528015610c20578160200160208202803683370190505b50905060005b60408051608081018252600080825260208201819052918101829052606081018290529080610c548c610d6e565b73ffffffffffffffffffffffffffffffffffffffff918216855216602084015250506040810189905260008080610c8a84610940565b8e8b81518110610c9c57610c9c611d89565b602002602001018e8c81518110610cb557610cb5611d89565b602002602001018d8d81518110610cce57610cce611d89565b61ffff9094166020948502919091019093019290925263ffffffff909316905273ffffffffffffffffffffffffffffffffffffffff9092169052919450925090506000859003610d1c578199505b829b508087610d2b9190611db8565b965084610d3781611dcb565b955050610d438d610e05565b15610d5857610d518d610e28565b9c50610d65565b8b9a5050505050506106bd565b50505050610c26565b600080610d7b8382610f28565b9150610d88836014610f28565b9050915091565b6000610da484610d9f8585610fb1565b61102c565b949350505050565b6000610de17f0000000000000000000000000000000000000000000000000000000000000000610ddc8585610fb1565b6110b9565b90505b92915050565b60006014808351610dfb9190611f2e565b610de49190611f70565b60006014610e138180611db8565b610e1d9190611db8565b825110159050919050565b6060610de46014808451610e3c9190611f2e565b849190611297565b806000811215610e5357600080fd5b919050565b6000806000806000806000808973ffffffffffffffffffffffffffffffffffffffff1663e76c01e46040518163ffffffff1660e01b815260040160c060405180830381865afa158015610eaf573d6000803e3d6000fd5b505050506040513d601f19601f82011682018060405250810190610ed39190611d02565b50929550610ee793508e9250611403915050565b939b5091995097509093509050610f1573ffffffffffffffffffffffffffffffffffffffff8b1683836114ad565b9450889350505093975093979195509350565b60008160140183511015610f98576040517f08c379a000000000000000000000000000000000000000000000000000000000815260206004820152601560248201527f746f416464726573735f6f75744f66426f756e647300000000000000000000006044820152606401610266565b5001602001516c01000000000000000000000000900490565b60408051808201909152600080825260208201528173ffffffffffffffffffffffffffffffffffffffff168373ffffffffffffffffffffffffffffffffffffffff161115610ffd579091905b506040805180820190915273ffffffffffffffffffffffffffffffffffffffff92831681529116602082015290565b600061103883836110b9565b90503373ffffffffffffffffffffffffffffffffffffffff821614610de4576040517f08c379a000000000000000000000000000000000000000000000000000000000815260206004820152601a60248201527f496e76616c69642063616c6c6572206f662063616c6c6261636b0000000000006044820152606401610266565b6000816020015173ffffffffffffffffffffffffffffffffffffffff16826000015173ffffffffffffffffffffffffffffffffffffffff1610611158576040517f08c379a000000000000000000000000000000000000000000000000000000000815260206004820152601760248201527f496e76616c6964206f72646572206f6620746f6b656e730000000000000000006044820152606401610266565b828260000151836020015160405160200161119692919073ffffffffffffffffffffffffffffffffffffffff92831681529116602082015260400190565b604080517fffffffffffffffffffffffffffffffffffffffffffffffffffffffffffffffe081840301815290829052805160209182012061125a939290917ff96d2474815c32e070cd63233f06af5413efc5dcb430aee4ff18cc29007c562d91017fff00000000000000000000000000000000000000000000000000000000000000815260609390931b7fffffffffffffffffffffffffffffffffffffffff0000000000000000000000001660018401526015830191909152603582015260550190565b604080517fffffffffffffffffffffffffffffffffffffffffffffffffffffffffffffffe081840301815291905280516020909101209392505050565b60608182601f011015611306576040517f08c379a000000000000000000000000000000000000000000000000000000000815260206004820152600e60248201527f736c6963655f6f766572666c6f770000000000000000000000000000000000006044820152606401610266565b81830184511015611373576040517f08c379a000000000000000000000000000000000000000000000000000000000815260206004820152601160248201527f736c6963655f6f75744f66426f756e64730000000000000000000000000000006044820152606401610266565b60608215801561139257604051915060008252602082016040526113fa565b6040519150601f8416801560200281840101858101878315602002848b0101015b818310156113cb5780518352602092830192016113b3565b5050858452601f017fffffffffffffffffffffffffffffffffffffffffffffffffffffffffffffffe016604052505b50949350505050565b6000806000806000855160e01461148757600086511161147f576040517f08c379a000000000000000000000000000000000000000000000000000000000815260206004820152601060248201527f556e6578706563746564206572726f72000000000000000000000000000000006044820152606401610266565b855186602001fd5b8580602001905181019061149b9190611f84565b939a9299509097509550909350915050565b6000808080808080600289900b60081d816114ca6101008c611fdd565b905060028a900b60081d60006114e26101008d611fdd565b905060008160ff166001901b8f73ffffffffffffffffffffffffffffffffffffffff1663c677e3e0856040518263ffffffff1660e01b8152600401611530919060019190910b815260200190565b602060405180830381865afa15801561154d573d6000803e3d6000fd5b505050506040513d601f19601f820116820180604052508101906115719190611fff565b161180156115f857508d73ffffffffffffffffffffffffffffffffffffffff1663d0c93a7c6040518163ffffffff1660e01b8152600401602060405180830381865afa1580156115c5573d6000803e3d6000fd5b505050506040513d601f19601f820116820180604052508101906115e99190612018565b6115f3908d611fdd565b60020b155b801561160957508b60020b8d60020b135b945060008360ff166001901b8f73ffffffffffffffffffffffffffffffffffffffff1663c677e3e0876040518263ffffffff1660e01b8152600401611657919060019190910b815260200190565b602060405180830381865afa158015611674573d6000803e3d6000fd5b505050506040513d601f19601f820116820180604052508101906116989190611fff565b1611801561171f57508d73ffffffffffffffffffffffffffffffffffffffff1663d0c93a7c6040518163ffffffff1660e01b8152600401602060405180830381865afa1580156116ec573d6000803e3d6000fd5b505050506040513d601f19601f820116820180604052508101906117109190612018565b61171a908e611fdd565b60020b155b801561173057508b60020b8d60020b125b95508160010b8460010b128061175c57508160010b8460010b14801561175c57508060ff168360ff1611155b156117725783995082975081985080965061177f565b8199508097508398508296505b50507fffffffffffffffffffffffffffffffffffffffffffffffffffffffffffffffff60ff87161b9150505b8560010b8760010b136118e3578560010b8760010b036117fa576117d08460ff612033565b7fffffffffffffffffffffffffffffffffffffffffffffffffffffffffffffffff60ff919091161c165b6040517fc677e3e0000000000000000000000000000000000000000000000000000000008152600188900b6004820152600090829073ffffffffffffffffffffffffffffffffffffffff8e169063c677e3e090602401602060405180830381865afa15801561186d573d6000803e3d6000fd5b505050506040513d601f19601f820116820180604052508101906118919190611fff565b16905061189d81611919565b6118ab9061ffff168a61204c565b9850876118b781612069565b9850507fffffffffffffffffffffffffffffffffffffffffffffffffffffffffffffffff9150506117ab565b81156118f7576118f4600189612089565b97505b821561190b57611908600189612089565b97505b505050505050509392505050565b6000805b8215610de4578061192d816120a6565b915061193c9050600184611f2e565b8316925061191d565b7f4e487b7100000000000000000000000000000000000000000000000000000000600052604160045260246000fd5b600082601f83011261198557600080fd5b813567ffffffffffffffff808211156119a0576119a0611945565b604051601f83017fffffffffffffffffffffffffffffffffffffffffffffffffffffffffffffffe0908116603f011681019082821181831017156119e6576119e6611945565b816040528381528660208588010111156119ff57600080fd5b836020870160208301376000602085830101528094505050505092915050565b600080600060608486031215611a3457600080fd5b8335925060208401359150604084013567ffffffffffffffff811115611a5957600080fd5b611a6586828701611974565b9150509250925092565b60008060408385031215611a8257600080fd5b823567ffffffffffffffff811115611a9957600080fd5b611aa585828601611974565b95602094909401359450505050565b600081518084526020808501945080840160005b83811015611ae857815161ffff1687529582019590820190600101611ac8565b509495945050505050565b600060c082018883526020888185015260c0604085015281885180845260e086019150828a01935060005b81811015611b5057845173ffffffffffffffffffffffffffffffffffffffff1683529383019391830191600101611b1e565b50508481036060860152875180825290820192508188019060005b81811015611b8d57825163ffffffff1685529383019391830191600101611b6b565b5050505084608084015282810360a0840152611ba98185611ab4565b9998505050505050505050565b73ffffffffffffffffffffffffffffffffffffffff81168114611bd857600080fd5b50565b600060808284031215611bed57600080fd5b6040516080810181811067ffffffffffffffff82111715611c1057611c10611945565b6040529050808235611c2181611bb6565b81526020830135611c3181611bb6565b6020820152604083810135908201526060830135611c4e81611bb6565b6060919091015292915050565b600060808284031215611c6d57600080fd5b610de18383611bdb565b7f4e487b7100000000000000000000000000000000000000000000000000000000600052601160045260246000fd5b60007f80000000000000000000000000000000000000000000000000000000000000008203611cd757611cd7611c77565b5060000390565b8051600281900b8114610e5357600080fd5b805161ffff81168114610e5357600080fd5b60008060008060008060c08789031215611d1b57600080fd5b8651611d2681611bb6565b9550611d3460208801611cde565b9450611d4260408801611cf0565b9350606087015160ff81168114611d5857600080fd5b9250611d6660808801611cf0565b915060a08701518015158114611d7b57600080fd5b809150509295509295509295565b7f4e487b7100000000000000000000000000000000000000000000000000000000600052603260045260246000fd5b80820180821115610de457610de4611c77565b60007fffffffffffffffffffffffffffffffffffffffffffffffffffffffffffffffff8203611dfc57611dfc611c77565b5060010190565b73ffffffffffffffffffffffffffffffffffffffff828116828216039080821115611e3057611e30611c77565b5092915050565b73ffffffffffffffffffffffffffffffffffffffff818116838216019080821115611e3057611e30611c77565b600073ffffffffffffffffffffffffffffffffffffffff8088168352602087151581850152866040850152818616606085015260a06080850152845191508160a085015260005b82811015611ec75785810182015185820160c001528101611eab565b5050600060c0828501015260c07fffffffffffffffffffffffffffffffffffffffffffffffffffffffffffffffe0601f8301168401019150509695505050505050565b60008060408385031215611f1d57600080fd5b505080516020909101519092909150565b81810381811115610de457610de4611c77565b7f4e487b7100000000000000000000000000000000000000000000000000000000600052601260045260246000fd5b600082611f7f57611f7f611f41565b500490565b600080600080600060a08688031215611f9c57600080fd5b85519450602086015193506040860151611fb581611bb6565b9250611fc360608701611cde565b9150611fd160808701611cf0565b90509295509295909350565b60008260020b80611ff057611ff0611f41565b808360020b0791505092915050565b60006020828403121561201157600080fd5b5051919050565b60006020828403121561202a57600080fd5b610de182611cde565b60ff8281168282160390811115610de457610de4611c77565b63ffffffff818116838216019080821115611e3057611e30611c77565b60008160010b617fff810361208057612080611c77565b60010192915050565b63ffffffff828116828216039080821115611e3057611e30611c77565b600061ffff8083168181036120bd576120bd611c77565b600101939250505056fea164736f6c6343000814000a","abi":[{"inputs":[{"internalType":"address","name":"_factory","type":"address"},{"internalType":"address","name":"_WNativeToken","type":"address"},{"internalType":"address","name":"_poolDeployer","type":"address"}],"stateMutability":"nonpayable","type":"constructor"},{"inputs":[],"name":"WNativeToken","outputs":[{"internalType":"address","name":"","type":"address"}],"stateMutability":"view","type":"function"},{"inputs":[{"internalType":"int256","name":"amount0Delta","type":"int256"},{"internalType":"int256","name":"amount1Delta","type":"int256"},{"internalType":"bytes","name":"path","type":"bytes"}],"name":"algebraSwapCallback","outputs":[],"stateMutability":"view","type":"function"},{"inputs":[],"name":"factory","outputs":[{"internalType":"address","name":"","type":"address"}],"stateMutability":"view","type":"function"},{"inputs":[],"name":"poolDeployer","outputs":[{"internalType":"address","name":"","type":"address"}],"stateMutability":"view","type":"function"},{"inputs":[{"internalType":"bytes","name":"path","type":"bytes"},{"internalType":"uint256","name":"amountInRequired","type":"uint256"}],"name":"quoteExactInput","outputs":[{"internalType":"uint256","name":"amountOut","type":"uint256"},{"internalType":"uint256","name":"amountIn","type":"uint256"},{"internalType":"uint160[]","name":"sqrtPriceX96AfterList","type":"uint160[]"},{"internalType":"uint32[]","name":"initializedTicksCrossedList","type":"uint32[]"},{"internalType":"uint256","name":"gasEstimate","type":"uint256"},{"internalType":"uint16[]","name":"feeList","type":"uint16[]"}],"stateMutability":"nonpayable","type":"function"},{"inputs":[{"components":[{"internalType":"address","name":"tokenIn","type":"address"},{"internalType":"address","name":"tokenOut","type":"address"},{"internalType":"uint256","name":"amountIn","type":"uint256"},{"internalType":"uint160","name":"limitSqrtPrice","type":"uint160"}],"internalType":"struct IQuoterV2.QuoteExactInputSingleParams","name":"params","type":"tuple"}],"name":"quoteExactInputSingle","outputs":[{"internalType":"uint256","name":"amountOut","type":"uint256"},{"internalType":"uint256","name":"amountIn","type":"uint256"},{"internalType":"uint160","name":"sqrtPriceX96After","type":"uint160"},{"internalType":"uint32","name":"initializedTicksCrossed","type":"uint32"},{"internalType":"uint256","name":"gasEstimate","type":"uint256"},{"internalType":"uint16","name":"fee","type":"uint16"}],"stateMutability":"nonpayable","type":"function"},{"inputs":[{"internalType":"bytes","name":"path","type":"bytes"},{"internalType":"uint256","name":"amountOutRequired","type":"uint256"}],"name":"quoteExactOutput","outputs":[{"internalType":"uint256","name":"amountOut","type":"uint256"},{"internalType":"uint256","name":"amountIn","type":"uint256"},{"internalType":"uint160[]","name":"sqrtPriceX96AfterList","type":"uint160[]"},{"internalType":"uint32[]","name":"initializedTicksCrossedList","type":"uint32[]"},{"internalType":"uint256","name":"gasEstimate","type":"uint256"},{"internalType":"uint16[]","name":"feeList","type":"uint16[]"}],"stateMutability":"nonpayable","type":"function"},{"inputs":[{"components":[{"internalType":"address","name":"tokenIn","type":"address"},{"internalType":"address","name":"tokenOut","type":"address"},{"internalType":"uint256","name":"amount","type":"uint256"},{"internalType":"uint160","name":"limitSqrtPrice","type":"uint160"}],"internalType":"struct IQuoterV2.QuoteExactOutputSingleParams","name":"params","type":"tuple"}],"name":"quoteExactOutputSingle","outputs":[{"internalType":"uint256","name":"amountOut","type":"uint256"},{"internalType":"uint256","name":"amountIn","type":"uint256"},{"internalType":"uint160","name":"sqrtPriceX96After","type":"uint160"},{"internalType":"uint32","name":"initializedTicksCrossed","type":"uint32"},{"internalType":"uint256","name":"gasEstimate","type":"uint256"},{"internalType":"uint16","name":"fee","type":"uint16"}],"stateMutability":"nonpayable","type":"function"}]}