{"address":"0xA24D19a7CC2B1662de51EF70b62f753B9Ca92356","bytecode":"0x60e06040523480156200001157600080fd5b50604051620016363803806200163683398101604081905262000034916200006e565b6001600160a01b03928316608052821660a0521660c052620000b8565b80516001600160a01b03811681146200006957600080fd5b919050565b6000806000606084860312156200008457600080fd5b6200008f8462000051565b92506200009f6020850162000051565b9150620000af6040850162000051565b90509250925092565b60805160a05160c051611541620000f5600039600061014401526000818160f80152818161024201526109b60152600061017e01526115416000f3fe608060405234801561001057600080fd5b50600436106100885760003560e01c80638af3ac851161005b5780638af3ac851461013f5780639e73c81d14610166578063c45a015514610179578063cdca1753146101a057600080fd5b80632c8958f61461008d5780632d9ebd1d146100a25780632f80bb1d146100d25780633119049a146100f3575b600080fd5b6100a061009b3660046110ac565b6101b3565b005b6100b56100b0366004611121565b610415565b6040805192835261ffff9091166020830152015b60405180910390f35b6100e56100e0366004611174565b6105d8565b6040516100c99291906111b9565b61011a7f000000000000000000000000000000000000000000000000000000000000000081565b60405173ffffffffffffffffffffffffffffffffffffffff90911681526020016100c9565b61011a7f000000000000000000000000000000000000000000000000000000000000000081565b6100b5610174366004611121565b6106be565b61011a7f000000000000000000000000000000000000000000000000000000000000000081565b6100e56101ae366004611174565b6108a3565b60008313806101c25750600082135b61022d576040517f08c379a000000000000000000000000000000000000000000000000000000000815260206004820152601360248201527f5a65726f206c697175696469747920737761700000000000000000000000000060448201526064015b60405180910390fd5b60008061023983610971565b915091506102687f00000000000000000000000000000000000000000000000000000000000000008383610992565b5060008060008088136102b4578473ffffffffffffffffffffffffffffffffffffffff168473ffffffffffffffffffffffffffffffffffffffff161087896102af9061123a565b6102ee565b8373ffffffffffffffffffffffffffffffffffffffff168573ffffffffffffffffffffffffffffffffffffffff161088886102ee9061123a565b925092509250600061030086866109af565b905060008173ffffffffffffffffffffffffffffffffffffffff1663e76c01e46040518163ffffffff1660e01b815260040160c060405180830381865afa15801561034f573d6000803e3d6000fd5b505050506040513d601f19601f820116820180604052508101906103739190611284565b50505092505050841561039157604051838152816020820152604081fd5b60005415610404576000548314610404576040517f08c379a000000000000000000000000000000000000000000000000000000000815260206004820152601b60248201527f4e6f742072656365697665642066756c6c20616d6f756e744f757400000000006044820152606401610224565b604051848152816020820152604081fd5b60008073ffffffffffffffffffffffffffffffffffffffff8086169087161061043e87876109af565b73ffffffffffffffffffffffffffffffffffffffff1663128acb083083610464896109ed565b73ffffffffffffffffffffffffffffffffffffffff89161561048657886104bf565b856104af576104aa600173fffd8963efd1fc6a506488495d951d5263988d26611315565b6104bf565b6104bf6401000276a36001611349565b6040517fffffffffffffffffffffffffffffffffffffffff00000000000000000000000060608f811b821660208401528e901b1660348201526048016040516020818303038152906040526040518663ffffffff1660e01b815260040161052a959493929190611376565b60408051808303816000875af1925050508015610582575060408051601f3d9081017fffffffffffffffffffffffffffffffffffffffffffffffffffffffffffffffe016820190925261057f9181019061141c565b60015b6105cb573d8080156105b0576040519150601f19603f3d011682016040523d82523d6000602084013e6105b5565b606091505b506105bf81610a01565b90945092506105ce9050565b50505b5094509492505050565b600060606105e584610a9d565b67ffffffffffffffff8111156105fd576105fd610fd2565b604051908082528060200260200182016040528015610626578160200160208202803683370190505b50905060005b600061063786610ab8565b905060008061064588610971565b9150915061065681838960006106be565b86868151811061066857610668611440565b602002602001018161ffff1661ffff16815250819850505082156106965761068f88610adb565b97506106a2565b869550505050506106b7565b836106ac8161146f565b94505050505061062c565b9250929050565b60008073ffffffffffffffffffffffffffffffffffffffff8086168782161090841682036106ec5760008590555b6106f687876109af565b73ffffffffffffffffffffffffffffffffffffffff1663128acb08308361071c896109ed565b6107259061123a565b73ffffffffffffffffffffffffffffffffffffffff8916156107475788610780565b856107705761076b600173fffd8963efd1fc6a506488495d951d5263988d26611315565b610780565b6107806401000276a36001611349565b6040517fffffffffffffffffffffffffffffffffffffffff00000000000000000000000060608e811b821660208401528f901b1660348201526048016040516020818303038152906040526040518663ffffffff1660e01b81526004016107eb959493929190611376565b60408051808303816000875af1925050508015610843575060408051601f3d9081017fffffffffffffffffffffffffffffffffffffffffffffffffffffffffffffffe01682019092526108409181019061141c565b60015b6105cb573d808015610871576040519150601f19603f3d011682016040523d82523d6000602084013e610876565b606091505b508473ffffffffffffffffffffffffffffffffffffffff1660000361089a57600080555b6105bf81610a01565b600060606108b084610a9d565b67ffffffffffffffff8111156108c8576108c8610fd2565b6040519080825280602002602001820160405280156108f1578160200160208202803683370190505b50905060005b600061090286610ab8565b905060008061091088610971565b915091506109218282896000610415565b86868151811061093357610933611440565b602002602001018161ffff1661ffff16815250819850505082156106965761095a88610adb565b9750836109668161146f565b9450505050506108f7565b60008061097e8382610af7565b915061098b836014610af7565b9050915091565b60006109a7846109a28585610b80565b610bfb565b949350505050565b60006109e47f00000000000000000000000000000000000000000000000000000000000000006109df8585610b80565b610c88565b90505b92915050565b8060008112156109fc57600080fd5b919050565b6000808251604014610a80576000835111610a78576040517f08c379a000000000000000000000000000000000000000000000000000000000815260206004820152601060248201527f556e6578706563746564206572726f72000000000000000000000000000000006044820152606401610224565b825183602001fd5b82806020019051810190610a9491906114a7565b91509150915091565b60006014808351610aae91906114d3565b6109e791906114e6565b60006014610ac68180611521565b610ad09190611521565b825110159050919050565b60606109e76014808451610aef91906114d3565b849190610e66565b60008160140183511015610b67576040517f08c379a000000000000000000000000000000000000000000000000000000000815260206004820152601560248201527f746f416464726573735f6f75744f66426f756e647300000000000000000000006044820152606401610224565b5001602001516c01000000000000000000000000900490565b60408051808201909152600080825260208201528173ffffffffffffffffffffffffffffffffffffffff168373ffffffffffffffffffffffffffffffffffffffff161115610bcc579091905b506040805180820190915273ffffffffffffffffffffffffffffffffffffffff92831681529116602082015290565b6000610c078383610c88565b90503373ffffffffffffffffffffffffffffffffffffffff8216146109e7576040517f08c379a000000000000000000000000000000000000000000000000000000000815260206004820152601a60248201527f496e76616c69642063616c6c6572206f662063616c6c6261636b0000000000006044820152606401610224565b6000816020015173ffffffffffffffffffffffffffffffffffffffff16826000015173ffffffffffffffffffffffffffffffffffffffff1610610d27576040517f08c379a000000000000000000000000000000000000000000000000000000000815260206004820152601760248201527f496e76616c6964206f72646572206f6620746f6b656e730000000000000000006044820152606401610224565b8282600001518360200151604051602001610d6592919073ffffffffffffffffffffffffffffffffffffffff92831681529116602082015260400190565b604080517fffffffffffffffffffffffffffffffffffffffffffffffffffffffffffffffe0818403018152908290528051602091820120610e29939290917ff96d2474815c32e070cd63233f06af5413efc5dcb430aee4ff18cc29007c562d91017fff00000000000000000000000000000000000000000000000000000000000000815260609390931b7fffffffffffffffffffffffffffffffffffffffff0000000000000000000000001660018401526015830191909152603582015260550190565b604080517fffffffffffffffffffffffffffffffffffffffffffffffffffffffffffffffe081840301815291905280516020909101209392505050565b60608182601f011015610ed5576040517f08c379a000000000000000000000000000000000000000000000000000000000815260206004820152600e60248201527f736c6963655f6f766572666c6f770000000000000000000000000000000000006044820152606401610224565b81830184511015610f42576040517f08c379a000000000000000000000000000000000000000000000000000000000815260206004820152601160248201527f736c6963655f6f75744f66426f756e64730000000000000000000000000000006044820152606401610224565b606082158015610f615760405191506000825260208201604052610fc9565b6040519150601f8416801560200281840101858101878315602002848b0101015b81831015610f9a578051835260209283019201610f82565b5050858452601f017fffffffffffffffffffffffffffffffffffffffffffffffffffffffffffffffe016604052505b50949350505050565b7f4e487b7100000000000000000000000000000000000000000000000000000000600052604160045260246000fd5b600082601f83011261101257600080fd5b813567ffffffffffffffff8082111561102d5761102d610fd2565b604051601f83017fffffffffffffffffffffffffffffffffffffffffffffffffffffffffffffffe0908116603f0116810190828211818310171561107357611073610fd2565b8160405283815286602085880101111561108c57600080fd5b836020870160208301376000602085830101528094505050505092915050565b6000806000606084860312156110c157600080fd5b8335925060208401359150604084013567ffffffffffffffff8111156110e657600080fd5b6110f286828701611001565b9150509250925092565b73ffffffffffffffffffffffffffffffffffffffff8116811461111e57600080fd5b50565b6000806000806080858703121561113757600080fd5b8435611142816110fc565b93506020850135611152816110fc565b9250604085013591506060850135611169816110fc565b939692955090935050565b6000806040838503121561118757600080fd5b823567ffffffffffffffff81111561119e57600080fd5b6111aa85828601611001565b95602094909401359450505050565b6000604082018483526020604081850152818551808452606086019150828701935060005b818110156111fe57845161ffff16835293830193918301916001016111de565b5090979650505050505050565b7f4e487b7100000000000000000000000000000000000000000000000000000000600052601160045260246000fd5b60007f8000000000000000000000000000000000000000000000000000000000000000820361126b5761126b61120b565b5060000390565b805161ffff811681146109fc57600080fd5b60008060008060008060c0878903121561129d57600080fd5b86516112a8816110fc565b8096505060208701518060020b81146112c057600080fd5b94506112ce60408801611272565b9350606087015160ff811681146112e457600080fd5b92506112f260808801611272565b915060a0870151801515811461130757600080fd5b809150509295509295509295565b73ffffffffffffffffffffffffffffffffffffffff8281168282160390808211156113425761134261120b565b5092915050565b73ffffffffffffffffffffffffffffffffffffffff8181168382160190808211156113425761134261120b565b600073ffffffffffffffffffffffffffffffffffffffff8088168352602087151581850152866040850152818616606085015260a06080850152845191508160a085015260005b828110156113d95785810182015185820160c0015281016113bd565b5050600060c0828501015260c07fffffffffffffffffffffffffffffffffffffffffffffffffffffffffffffffe0601f8301168401019150509695505050505050565b6000806040838503121561142f57600080fd5b505080516020909101519092909150565b7f4e487b7100000000000000000000000000000000000000000000000000000000600052603260045260246000fd5b60007fffffffffffffffffffffffffffffffffffffffffffffffffffffffffffffffff82036114a0576114a061120b565b5060010190565b600080604083850312156114ba57600080fd5b825191506114ca60208401611272565b90509250929050565b818103818111156109e7576109e761120b565b60008261151c577f4e487b7100000000000000000000000000000000000000000000000000000000600052601260045260246000fd5b500490565b808201808211156109e7576109e761120b56fea164736f6c6343000814000a","abi":[{"inputs":[{"internalType":"address","name":"_factory","type":"address"},{"internalType":"address","name":"_WNativeToken","type":"address"},{"internalType":"address","name":"_poolDeployer","type":"address"}],"stateMutability":"nonpayable","type":"constructor"},{"inputs":[],"name":"WNativeToken","outputs":[{"internalType":"address","name":"","type":"address"}],"stateMutability":"view","type":"function"},{"inputs":[{"internalType":"int256","name":"amount0Delta","type":"int256"},{"internalType":"int256","name":"amount1Delta","type":"int256"},{"internalType":"bytes","name":"path","type":"bytes"}],"name":"algebraSwapCallback","outputs":[],"stateMutability":"view","type":"function"},{"inputs":[],"name":"factory","outputs":[{"internalType":"address","name":"","type":"address"}],"stateMutability":"view","type":"function"},{"inputs":[],"name":"poolDeployer","outputs":[{"internalType":"address","name":"","type":"address"}],"stateMutability":"view","type":"function"},{"inputs":[{"internalType":"bytes","name":"path","type":"bytes"},{"internalType":"uint256","name":"amountIn","type":"uint256"}],"name":"quoteExactInput","outputs":[{"internalType":"uint256","name":"amountOut","type":"uint256"},{"internalType":"uint16[]","name":"fees","type":"uint16[]"}],"stateMutability":"nonpayable","type":"function"},{"inputs":[{"internalType":"address","name":"tokenIn","type":"address"},{"internalType":"address","name":"tokenOut","type":"address"},{"internalType":"uint256","name":"amountIn","type":"uint256"},{"internalType":"uint160","name":"limitSqrtPrice","type":"uint160"}],"name":"quoteExactInputSingle","outputs":[{"internalType":"uint256","name":"amountOut","type":"uint256"},{"internalType":"uint16","name":"fee","type":"uint16"}],"stateMutability":"nonpayable","type":"function"},{"inputs":[{"internalType":"bytes","name":"path","type":"bytes"},{"internalType":"uint256","name":"amountOut","type":"uint256"}],"name":"quoteExactOutput","outputs":[{"internalType":"uint256","name":"amountIn","type":"uint256"},{"internalType":"uint16[]","name":"fees","type":"uint16[]"}],"stateMutability":"nonpayable","type":"function"},{"inputs":[{"internalType":"address","name":"tokenIn","type":"address"},{"internalType":"address","name":"tokenOut","type":"address"},{"internalType":"uint256","name":"amountOut","type":"uint256"},{"internalType":"uint160","name":"limitSqrtPrice","type":"uint160"}],"name":"quoteExactOutputSingle","outputs":[{"internalType":"uint256","name":"amountIn","type":"uint256"},{"internalType":"uint16","name":"fee","type":"uint16"}],"stateMutability":"nonpayable","type":"function"}]}