{"address":"0x50814AC6698adeb264510AD1CFAa3B4586E92c3A","bytecode":"0x60e06040526000196000553480156200001757600080fd5b5060405162003132380380620031328339810160408190526200003a9162000074565b6001600160a01b03928316608052821660a0521660c052620000be565b80516001600160a01b03811681146200006f57600080fd5b919050565b6000806000606084860312156200008a57600080fd5b620000958462000057565b9250620000a56020850162000057565b9150620000b56040850162000057565b90509250925092565b60805160a05160c051612ffe6200013460003960008181610165015281816102d7015281816107f6015281816108bb015281816110ae015281816111cf0152818161162f0152818161168f015261175701526000818161022a015281816104a90152611cba0152600061038a0152612ffe6000f3fe6080604052600436106101485760003560e01c8063b87d2524116100c0578063c60696ec11610074578063e0e189a011610059578063e0e189a0146103d2578063f28c0498146103e5578063f3995c67146103f857600080fd5b8063c60696ec146103ac578063df2ab5bb146103bf57600080fd5b8063c04b8d59116100a5578063c04b8d5914610352578063c2e3140a14610365578063c45a01551461037857600080fd5b8063b87d25241461032c578063bc6511881461033f57600080fd5b806361d4d5b3116101175780638af3ac85116100fc5780638af3ac85146102c5578063a4a78f0c146102f9578063ac9650d81461030c57600080fd5b806361d4d5b31461029157806369bc35b2146102b257600080fd5b80632c8958f6146101f85780633119049a1461021857806341865270146102765780634659a4941461027e57600080fd5b366101f3573373ffffffffffffffffffffffffffffffffffffffff7f000000000000000000000000000000000000000000000000000000000000000016146101f1576040517f08c379a000000000000000000000000000000000000000000000000000000000815260206004820152601060248201527f4e6f7420574e6174697665546f6b656e0000000000000000000000000000000060448201526064015b60405180910390fd5b005b600080fd5b34801561020457600080fd5b506101f1610213366004612654565b61040b565b34801561022457600080fd5b5061024c7f000000000000000000000000000000000000000000000000000000000000000081565b60405173ffffffffffffffffffffffffffffffffffffffff90911681526020015b60405180910390f35b6101f16105b5565b6101f161028c3660046126f6565b6105c7565b6102a461029f36600461276a565b610682565b60405190815260200161026d565b6101f16102c0366004612786565b6107ef565b3480156102d157600080fd5b5061024c7f000000000000000000000000000000000000000000000000000000000000000081565b6101f16103073660046126f6565b61093b565b61031f61031a3660046127b6565b610981565b60405161026d9190612899565b6102a461033a36600461276a565b610aa2565b6102a461034d36600461276a565b610ddd565b6102a4610360366004612a1c565b610f23565b6101f16103733660046126f6565b611045565b34801561038457600080fd5b5061024c7f000000000000000000000000000000000000000000000000000000000000000081565b6101f16103ba366004612ac0565b611063565b6101f16103cd366004612b0a565b611287565b6101f16103e0366004612b4c565b611315565b6102a46103f3366004612bab565b61147b565b6101f16104063660046126f6565b611572565b600084138061041a5750600083135b610480576040517f08c379a000000000000000000000000000000000000000000000000000000000815260206004820152601360248201527f5a65726f206c697175696469747920737761700000000000000000000000000060448201526064016101e8565b600061048e82840184612be6565b90506000806104a083600001516115ef565b915091506104cf7f00000000000000000000000000000000000000000000000000000000000000008383611610565b5060008060008913610510578373ffffffffffffffffffffffffffffffffffffffff168373ffffffffffffffffffffffffffffffffffffffff161088610541565b8273ffffffffffffffffffffffffffffffffffffffff168473ffffffffffffffffffffffffffffffffffffffff1610895b9150915081156105605761055b848660200151338461162d565b6105aa565b845161056b90611807565b1561059057845161057b9061182a565b855261058a813360008861184c565b506105aa565b806000819055508293506105aa848660200151338461162d565b505050505050505050565b47156105c5576105c53347611a75565b565b6040517f8fcbaf0c00000000000000000000000000000000000000000000000000000000815233600482015230602482015260448101869052606481018590526001608482015260ff841660a482015260c4810183905260e4810182905273ffffffffffffffffffffffffffffffffffffffff871690638fcbaf0c90610104015b600060405180830381600087803b15801561066257600080fd5b505af1158015610676573d6000803e3d6000fd5b50505050505050505050565b6000816060013561069281611b59565b61075560808401356106aa6060860160408701612c80565b6106ba60e0870160c08801612c80565b60405180604001604052808860200160208101906106d89190612c80565b6106e560208b018b612c80565b6040517fffffffffffffffffffffffffffffffffffffffff000000000000000000000000606093841b811660208301529190921b16603482015260480160405160208183030381529060405281526020013373ffffffffffffffffffffffffffffffffffffffff1681525061184c565b91508260a001358211156107c5576040517f08c379a000000000000000000000000000000000000000000000000000000000815260206004820152601260248201527f546f6f206d75636820726571756573746564000000000000000000000000000060448201526064016101e8565b507fffffffffffffffffffffffffffffffffffffffffffffffffffffffffffffffff600055919050565b600061081a7f0000000000000000000000000000000000000000000000000000000000000000611bc6565b905082811015610886576040517f08c379a000000000000000000000000000000000000000000000000000000000815260206004820152601960248201527f496e73756666696369656e7420574e6174697665546f6b656e0000000000000060448201526064016101e8565b8015610936576040517f2e1a7d4d000000000000000000000000000000000000000000000000000000008152600481018290527f000000000000000000000000000000000000000000000000000000000000000073ffffffffffffffffffffffffffffffffffffffff1690632e1a7d4d90602401600060405180830381600087803b15801561091457600080fd5b505af1158015610928573d6000803e3d6000fd5b505050506109368282611a75565b505050565b7fffffffffffffffffffffffffffffffffffffffffffffffffffffffffffffffff61096587611c58565b1015610979576109798686868686866105c7565b505050505050565b60608167ffffffffffffffff81111561099c5761099c612919565b6040519080825280602002602001820160405280156109cf57816020015b60608152602001906001900390816109ba5790505b50905060005b82811015610a9b57600080308686858181106109f3576109f3612c9d565b9050602002810190610a059190612ccc565b604051610a13929190612d38565b600060405180830381855af49150503d8060008114610a4e576040519150601f19603f3d011682016040523d82523d6000602084013e610a53565b606091505b509150915081610a73576000815111610a6b57600080fd5b805181602001fd5b80848481518110610a8657610a86612c9d565b602090810291909101015250506001016109d5565b5092915050565b60008160600135610ab281611b59565b6040805180820190915260009080610acd6020870187612c80565b610add6040880160208901612c80565b6040517fffffffffffffffffffffffffffffffffffffffff000000000000000000000000606093841b811660208301529190921b16603482015260480160405160208183030381529060405281526020013373ffffffffffffffffffffffffffffffffffffffff16815250905060008073ffffffffffffffffffffffffffffffffffffffff16856040016020810190610b769190612c80565b73ffffffffffffffffffffffffffffffffffffffff1614610ba657610ba16060860160408701612c80565b610ba8565b305b90506000610bbc6040870160208801612c80565b73ffffffffffffffffffffffffffffffffffffffff16610bdf6020880188612c80565b73ffffffffffffffffffffffffffffffffffffffff16109050600080610c20610c0b60208a018a612c80565b610c1b60408b0160208c01612c80565b611cb3565b73ffffffffffffffffffffffffffffffffffffffff16639e4e0227338686610c4b8d60800135611cef565b8d60c0016020810190610c5e9190612c80565b73ffffffffffffffffffffffffffffffffffffffff1615610c91578d60c0016020810190610c8c9190612c80565b610cc5565b88610cb557610c8c600173fffd8963efd1fc6a506488495d951d5263988d26612d77565b610cc56401000276a36001612da4565b8b604051602001610cd69190612dd1565b6040516020818303038152906040526040518763ffffffff1660e01b8152600401610d0696959493929190612e19565b60408051808303816000875af1158015610d24573d6000803e3d6000fd5b505050506040513d601f19601f82011682018060405250810190610d489190612e74565b9150915082610d575781610d59565b805b610d6290612e98565b96508760a00135871015610dd2576040517f08c379a000000000000000000000000000000000000000000000000000000000815260206004820152601360248201527f546f6f206c6974746c652072656365697665640000000000000000000000000060448201526064016101e8565b505050505050919050565b60008160600135610ded81611b59565b610ead6080840135610e056060860160408701612c80565b610e1560e0870160c08801612c80565b6040805180820190915280610e2d60208a018a612c80565b610e3d60408b0160208c01612c80565b6040517fffffffffffffffffffffffffffffffffffffffff000000000000000000000000606093841b811660208301529190921b16603482015260480160405160208183030381529060405281526020013373ffffffffffffffffffffffffffffffffffffffff16815250611d03565b91508260a00135821015610f1d576040517f08c379a000000000000000000000000000000000000000000000000000000000815260206004820152601360248201527f546f6f206c6974746c652072656365697665640000000000000000000000000060448201526064016101e8565b50919050565b60008160400151610f3381611b59565b335b6000610f448560000151611807565b9050610f9d856060015182610f5d578660200151610f5f565b305b60006040518060400160405280610f798b60000151611e8d565b81526020018773ffffffffffffffffffffffffffffffffffffffff16815250611d03565b60608601528015610fbd578451309250610fb69061182a565b8552610fca565b8460600151935050610fd0565b50610f35565b836080015183101561103e576040517f08c379a000000000000000000000000000000000000000000000000000000000815260206004820152601360248201527f546f6f206c6974746c652072656365697665640000000000000000000000000060448201526064016101e8565b5050919050565b8461104f87611c58565b101561097957610979868686868686611572565b600082118015611074575060648211155b61107d57600080fd5b6040517f70a082310000000000000000000000000000000000000000000000000000000081523060048201526000907f000000000000000000000000000000000000000000000000000000000000000073ffffffffffffffffffffffffffffffffffffffff16906370a0823190602401602060405180830381865afa15801561110a573d6000803e3d6000fd5b505050506040513d601f19601f8201168201806040525081019061112e9190612ed0565b90508481101561119a576040517f08c379a000000000000000000000000000000000000000000000000000000000815260206004820152601960248201527f496e73756666696369656e7420574e6174697665546f6b656e0000000000000060448201526064016101e8565b8015611280576040517f2e1a7d4d000000000000000000000000000000000000000000000000000000008152600481018290527f000000000000000000000000000000000000000000000000000000000000000073ffffffffffffffffffffffffffffffffffffffff1690632e1a7d4d90602401600060405180830381600087803b15801561122857600080fd5b505af115801561123c573d6000803e3d6000fd5b50505050600061271084836112519190612ee9565b61125b9190612f00565b9050801561126d5761126d8382611a75565b6109798561127b8385612f3b565b611a75565b5050505050565b600061129284611bc6565b9050828110156112fe576040517f08c379a000000000000000000000000000000000000000000000000000000000815260206004820152601260248201527f496e73756666696369656e7420746f6b656e000000000000000000000000000060448201526064016101e8565b801561130f5761130f848383611e9f565b50505050565b600082118015611326575060648211155b61132f57600080fd5b6040517f70a0823100000000000000000000000000000000000000000000000000000000815230600482015260009073ffffffffffffffffffffffffffffffffffffffff8716906370a0823190602401602060405180830381865afa15801561139c573d6000803e3d6000fd5b505050506040513d601f19601f820116820180604052508101906113c09190612ed0565b90508481101561142c576040517f08c379a000000000000000000000000000000000000000000000000000000000815260206004820152601260248201527f496e73756666696369656e7420746f6b656e000000000000000000000000000060448201526064016101e8565b80156109795760006127106114418584612ee9565b61144b9190612f00565b9050801561145e5761145e878483611e9f565b611472878661146d8486612f3b565b611e9f565b50505050505050565b6000816040013561148b81611b59565b6114fe60608401356114a36040860160208701612c80565b60408051808201909152600090806114bb8980612ccc565b8080601f0160208091040260200160405190810160405280939291908181526020018383808284376000920191909152505050908252503360209091015261184c565b50600054915082608001358211156107c5576040517f08c379a000000000000000000000000000000000000000000000000000000000815260206004820152601260248201527f546f6f206d75636820726571756573746564000000000000000000000000000060448201526064016101e8565b6040517fd505accf000000000000000000000000000000000000000000000000000000008152336004820152306024820152604481018690526064810185905260ff8416608482015260a4810183905260c4810182905273ffffffffffffffffffffffffffffffffffffffff87169063d505accf9060e401610648565b6000806115fc8382612008565b9150611609836014612008565b9050915091565b6000611625846116208585612091565b61210c565b949350505050565b7f000000000000000000000000000000000000000000000000000000000000000073ffffffffffffffffffffffffffffffffffffffff168473ffffffffffffffffffffffffffffffffffffffff161480156116885750804710155b156117ce577f000000000000000000000000000000000000000000000000000000000000000073ffffffffffffffffffffffffffffffffffffffff1663d0e30db0826040518263ffffffff1660e01b81526004016000604051808303818588803b1580156116f557600080fd5b505af1158015611709573d6000803e3d6000fd5b50506040517fa9059cbb00000000000000000000000000000000000000000000000000000000815273ffffffffffffffffffffffffffffffffffffffff8681166004830152602482018690527f000000000000000000000000000000000000000000000000000000000000000016935063a9059cbb925060440190506020604051808303816000875af11580156117a4573d6000803e3d6000fd5b505050506040513d601f19601f820116820180604052508101906117c89190612f4e565b5061130f565b3073ffffffffffffffffffffffffffffffffffffffff8416036117fb576117f6848383611e9f565b61130f565b61130f84848484612199565b600060146118158180612f70565b61181f9190612f70565b825110159050919050565b6060611846601480845161183e9190612f3b565b84919061230a565b92915050565b600073ffffffffffffffffffffffffffffffffffffffff841661186d573093505b60008061187d84600001516115ef565b909250905073ffffffffffffffffffffffffffffffffffffffff808316908216106000806118ab8486611cb3565b73ffffffffffffffffffffffffffffffffffffffff1663128acb088a856118d18e611cef565b6118da90612e98565b73ffffffffffffffffffffffffffffffffffffffff8d16156118fc578c611935565b8761192557611920600173fffd8963efd1fc6a506488495d951d5263988d26612d77565b611935565b6119356401000276a36001612da4565b8c6040516020016119469190612dd1565b6040516020818303038152906040526040518663ffffffff1660e01b8152600401611975959493929190612f83565b60408051808303816000875af1158015611993573d6000803e3d6000fd5b505050506040513d601f19601f820116820180604052508101906119b79190612e74565b915091506000836119d157816119cc84612e98565b6119db565b826119db83612e98565b909750905073ffffffffffffffffffffffffffffffffffffffff8916600003611a67578a8114611a67576040517f08c379a000000000000000000000000000000000000000000000000000000000815260206004820152601b60248201527f4e6f742072656365697665642066756c6c20616d6f756e744f7574000000000060448201526064016101e8565b505050505050949350505050565b6040805160008082526020820190925273ffffffffffffffffffffffffffffffffffffffff8416908390604051611aac9190612fd5565b60006040518083038185875af1925050503d8060008114611ae9576040519150601f19603f3d011682016040523d82523d6000602084013e611aee565b606091505b5050905080610936576040517f08c379a000000000000000000000000000000000000000000000000000000000815260206004820152600360248201527f535445000000000000000000000000000000000000000000000000000000000060448201526064016101e8565b80421115611bc3576040517f08c379a000000000000000000000000000000000000000000000000000000000815260206004820152601360248201527f5472616e73616374696f6e20746f6f206f6c640000000000000000000000000060448201526064016101e8565b50565b6040517f70a0823100000000000000000000000000000000000000000000000000000000815230600482015260009073ffffffffffffffffffffffffffffffffffffffff8316906370a08231906024015b602060405180830381865afa158015611c34573d6000803e3d6000fd5b505050506040513d601f19601f820116820180604052508101906118469190612ed0565b6040517fdd62ed3e00000000000000000000000000000000000000000000000000000000815233600482015230602482015260009073ffffffffffffffffffffffffffffffffffffffff83169063dd62ed3e90604401611c17565b6000611ce87f0000000000000000000000000000000000000000000000000000000000000000611ce38585612091565b612476565b9392505050565b806000811215611cfe57600080fd5b919050565b600073ffffffffffffffffffffffffffffffffffffffff8416611d24573093505b600080611d3484600001516115ef565b909250905073ffffffffffffffffffffffffffffffffffffffff80821690831610600080611d628585611cb3565b73ffffffffffffffffffffffffffffffffffffffff1663128acb088a85611d888e611cef565b73ffffffffffffffffffffffffffffffffffffffff8d1615611daa578c611de3565b87611dd357611dce600173fffd8963efd1fc6a506488495d951d5263988d26612d77565b611de3565b611de36401000276a36001612da4565b8c604051602001611df49190612dd1565b6040516020818303038152906040526040518663ffffffff1660e01b8152600401611e23959493929190612f83565b60408051808303816000875af1158015611e41573d6000803e3d6000fd5b505050506040513d601f19601f82011682018060405250810190611e659190612e74565b9150915082611e745781611e76565b805b611e7f90612e98565b9a9950505050505050505050565b6060611846600061183e601480612f70565b6040805173ffffffffffffffffffffffffffffffffffffffff8481166024830152604480830185905283518084039091018152606490920183526020820180517bffffffffffffffffffffffffffffffffffffffffffffffffffffffff167fa9059cbb000000000000000000000000000000000000000000000000000000001790529151600092839290871691611f369190612fd5565b6000604051808303816000865af19150503d8060008114611f73576040519150601f19603f3d011682016040523d82523d6000602084013e611f78565b606091505b5091509150818015611fa2575080511580611fa2575080806020019051810190611fa29190612f4e565b611280576040517f08c379a000000000000000000000000000000000000000000000000000000000815260206004820152600260248201527f535400000000000000000000000000000000000000000000000000000000000060448201526064016101e8565b60008160140183511015612078576040517f08c379a000000000000000000000000000000000000000000000000000000000815260206004820152601560248201527f746f416464726573735f6f75744f66426f756e6473000000000000000000000060448201526064016101e8565b5001602001516c01000000000000000000000000900490565b60408051808201909152600080825260208201528173ffffffffffffffffffffffffffffffffffffffff168373ffffffffffffffffffffffffffffffffffffffff1611156120dd579091905b506040805180820190915273ffffffffffffffffffffffffffffffffffffffff92831681529116602082015290565b60006121188383612476565b90503373ffffffffffffffffffffffffffffffffffffffff821614611846576040517f08c379a000000000000000000000000000000000000000000000000000000000815260206004820152601a60248201527f496e76616c69642063616c6c6572206f662063616c6c6261636b00000000000060448201526064016101e8565b6040805173ffffffffffffffffffffffffffffffffffffffff85811660248301528481166044830152606480830185905283518084039091018152608490920183526020820180517bffffffffffffffffffffffffffffffffffffffffffffffffffffffff167f23b872dd0000000000000000000000000000000000000000000000000000000017905291516000928392908816916122389190612fd5565b6000604051808303816000865af19150503d8060008114612275576040519150601f19603f3d011682016040523d82523d6000602084013e61227a565b606091505b50915091508180156122a45750805115806122a45750808060200190518101906122a49190612f4e565b610979576040517f08c379a000000000000000000000000000000000000000000000000000000000815260206004820152600360248201527f535446000000000000000000000000000000000000000000000000000000000060448201526064016101e8565b60608182601f011015612379576040517f08c379a000000000000000000000000000000000000000000000000000000000815260206004820152600e60248201527f736c6963655f6f766572666c6f7700000000000000000000000000000000000060448201526064016101e8565b818301845110156123e6576040517f08c379a000000000000000000000000000000000000000000000000000000000815260206004820152601160248201527f736c6963655f6f75744f66426f756e647300000000000000000000000000000060448201526064016101e8565b606082158015612405576040519150600082526020820160405261246d565b6040519150601f8416801560200281840101858101878315602002848b0101015b8183101561243e578051835260209283019201612426565b5050858452601f017fffffffffffffffffffffffffffffffffffffffffffffffffffffffffffffffe016604052505b50949350505050565b6000816020015173ffffffffffffffffffffffffffffffffffffffff16826000015173ffffffffffffffffffffffffffffffffffffffff1610612515576040517f08c379a000000000000000000000000000000000000000000000000000000000815260206004820152601760248201527f496e76616c6964206f72646572206f6620746f6b656e7300000000000000000060448201526064016101e8565b828260000151836020015160405160200161255392919073ffffffffffffffffffffffffffffffffffffffff92831681529116602082015260400190565b604080517fffffffffffffffffffffffffffffffffffffffffffffffffffffffffffffffe0818403018152908290528051602091820120612617939290917ff96d2474815c32e070cd63233f06af5413efc5dcb430aee4ff18cc29007c562d91017fff00000000000000000000000000000000000000000000000000000000000000815260609390931b7fffffffffffffffffffffffffffffffffffffffff0000000000000000000000001660018401526015830191909152603582015260550190565b604080517fffffffffffffffffffffffffffffffffffffffffffffffffffffffffffffffe081840301815291905280516020909101209392505050565b6000806000806060858703121561266a57600080fd5b8435935060208501359250604085013567ffffffffffffffff8082111561269057600080fd5b818701915087601f8301126126a457600080fd5b8135818111156126b357600080fd5b8860208285010111156126c557600080fd5b95989497505060200194505050565b73ffffffffffffffffffffffffffffffffffffffff81168114611bc357600080fd5b60008060008060008060c0878903121561270f57600080fd5b863561271a816126d4565b95506020870135945060408701359350606087013560ff8116811461273e57600080fd5b9598949750929560808101359460a0909101359350915050565b600060e08284031215610f1d57600080fd5b600060e0828403121561277c57600080fd5b611ce88383612758565b6000806040838503121561279957600080fd5b8235915060208301356127ab816126d4565b809150509250929050565b600080602083850312156127c957600080fd5b823567ffffffffffffffff808211156127e157600080fd5b818501915085601f8301126127f557600080fd5b81358181111561280457600080fd5b8660208260051b850101111561281957600080fd5b60209290920196919550909350505050565b60005b8381101561284657818101518382015260200161282e565b50506000910152565b6000815180845261286781602086016020860161282b565b601f017fffffffffffffffffffffffffffffffffffffffffffffffffffffffffffffffe0169290920160200192915050565b6000602080830181845280855180835260408601915060408160051b870101925083870160005b8281101561290c577fffffffffffffffffffffffffffffffffffffffffffffffffffffffffffffffc08886030184526128fa85835161284f565b945092850192908501906001016128c0565b5092979650505050505050565b7f4e487b7100000000000000000000000000000000000000000000000000000000600052604160045260246000fd5b60405160a0810167ffffffffffffffff8111828210171561296b5761296b612919565b60405290565b600082601f83011261298257600080fd5b813567ffffffffffffffff8082111561299d5761299d612919565b604051601f83017fffffffffffffffffffffffffffffffffffffffffffffffffffffffffffffffe0908116603f011681019082821181831017156129e3576129e3612919565b816040528381528660208588010111156129fc57600080fd5b836020870160208301376000602085830101528094505050505092915050565b600060208284031215612a2e57600080fd5b813567ffffffffffffffff80821115612a4657600080fd5b9083019060a08286031215612a5a57600080fd5b612a62612948565b823582811115612a7157600080fd5b612a7d87828601612971565b82525060208301359150612a90826126d4565b81602082015260408301356040820152606083013560608201526080830135608082015280935050505092915050565b60008060008060808587031215612ad657600080fd5b843593506020850135612ae8816126d4565b9250604085013591506060850135612aff816126d4565b939692955090935050565b600080600060608486031215612b1f57600080fd5b8335612b2a816126d4565b9250602084013591506040840135612b41816126d4565b809150509250925092565b600080600080600060a08688031215612b6457600080fd5b8535612b6f816126d4565b9450602086013593506040860135612b86816126d4565b9250606086013591506080860135612b9d816126d4565b809150509295509295909350565b600060208284031215612bbd57600080fd5b813567ffffffffffffffff811115612bd457600080fd5b820160a08185031215611ce857600080fd5b600060208284031215612bf857600080fd5b813567ffffffffffffffff80821115612c1057600080fd5b9083019060408286031215612c2457600080fd5b604051604081018181108382111715612c3f57612c3f612919565b604052823582811115612c5157600080fd5b612c5d87828601612971565b82525060208301359250612c70836126d4565b6020810192909252509392505050565b600060208284031215612c9257600080fd5b8135611ce8816126d4565b7f4e487b7100000000000000000000000000000000000000000000000000000000600052603260045260246000fd5b60008083357fffffffffffffffffffffffffffffffffffffffffffffffffffffffffffffffe1843603018112612d0157600080fd5b83018035915067ffffffffffffffff821115612d1c57600080fd5b602001915036819003821315612d3157600080fd5b9250929050565b8183823760009101908152919050565b7f4e487b7100000000000000000000000000000000000000000000000000000000600052601160045260246000fd5b73ffffffffffffffffffffffffffffffffffffffff828116828216039080821115610a9b57610a9b612d48565b73ffffffffffffffffffffffffffffffffffffffff818116838216019080821115610a9b57610a9b612d48565b602081526000825160406020840152612ded606084018261284f565b905073ffffffffffffffffffffffffffffffffffffffff60208501511660408401528091505092915050565b600073ffffffffffffffffffffffffffffffffffffffff80891683528088166020840152861515604084015285606084015280851660808401525060c060a0830152612e6860c083018461284f565b98975050505050505050565b60008060408385031215612e8757600080fd5b505080516020909101519092909150565b60007f80000000000000000000000000000000000000000000000000000000000000008203612ec957612ec9612d48565b5060000390565b600060208284031215612ee257600080fd5b5051919050565b808202811582820484141761184657611846612d48565b600082612f36577f4e487b7100000000000000000000000000000000000000000000000000000000600052601260045260246000fd5b500490565b8181038181111561184657611846612d48565b600060208284031215612f6057600080fd5b81518015158114611ce857600080fd5b8082018082111561184657611846612d48565b600073ffffffffffffffffffffffffffffffffffffffff8088168352861515602084015285604084015280851660608401525060a06080830152612fca60a083018461284f565b979650505050505050565b60008251612fe781846020870161282b565b919091019291505056fea164736f6c6343000814000a","abi":[{"inputs":[{"internalType":"address","name":"_factory","type":"address"},{"internalType":"address","name":"_WNativeToken","type":"address"},{"internalType":"address","name":"_poolDeployer","type":"address"}],"stateMutability":"nonpayable","type":"constructor"},{"inputs":[],"name":"WNativeToken","outputs":[{"internalType":"address","name":"","type":"address"}],"stateMutability":"view","type":"function"},{"inputs":[{"internalType":"int256","name":"amount0Delta","type":"int256"},{"internalType":"int256","name":"amount1Delta","type":"int256"},{"internalType":"bytes","name":"_data","type":"bytes"}],"name":"algebraSwapCallback","outputs":[],"stateMutability":"nonpayable","type":"function"},{"inputs":[{"components":[{"internalType":"bytes","name":"path","type":"bytes"},{"internalType":"address","name":"recipient","type":"address"},{"internalType":"uint256","name":"deadline","type":"uint256"},{"internalType":"uint256","name":"amountIn","type":"uint256"},{"internalType":"uint256","name":"amountOutMinimum","type":"uint256"}],"internalType":"struct ISwapRouter.ExactInputParams","name":"params","type":"tuple"}],"name":"exactInput","outputs":[{"internalType":"uint256","name":"amountOut","type":"uint256"}],"stateMutability":"payable","type":"function"},{"inputs":[{"components":[{"internalType":"address","name":"tokenIn","type":"address"},{"internalType":"address","name":"tokenOut","type":"address"},{"internalType":"address","name":"recipient","type":"address"},{"internalType":"uint256","name":"deadline","type":"uint256"},{"internalType":"uint256","name":"amountIn","type":"uint256"},{"internalType":"uint256","name":"amountOutMinimum","type":"uint256"},{"internalType":"uint160","name":"limitSqrtPrice","type":"uint160"}],"internalType":"struct ISwapRouter.ExactInputSingleParams","name":"params","type":"tuple"}],"name":"exactInputSingle","outputs":[{"internalType":"uint256","name":"amountOut","type":"uint256"}],"stateMutability":"payable","type":"function"},{"inputs":[{"components":[{"internalType":"address","name":"tokenIn","type":"address"},{"internalType":"address","name":"tokenOut","type":"address"},{"internalType":"address","name":"recipient","type":"address"},{"internalType":"uint256","name":"deadline","type":"uint256"},{"internalType":"uint256","name":"amountIn","type":"uint256"},{"internalType":"uint256","name":"amountOutMinimum","type":"uint256"},{"internalType":"uint160","name":"limitSqrtPrice","type":"uint160"}],"internalType":"struct ISwapRouter.ExactInputSingleParams","name":"params","type":"tuple"}],"name":"exactInputSingleSupportingFeeOnTransferTokens","outputs":[{"internalType":"uint256","name":"amountOut","type":"uint256"}],"stateMutability":"payable","type":"function"},{"inputs":[{"components":[{"internalType":"bytes","name":"path","type":"bytes"},{"internalType":"address","name":"recipient","type":"address"},{"internalType":"uint256","name":"deadline","type":"uint256"},{"internalType":"uint256","name":"amountOut","type":"uint256"},{"internalType":"uint256","name":"amountInMaximum","type":"uint256"}],"internalType":"struct ISwapRouter.ExactOutputParams","name":"params","type":"tuple"}],"name":"exactOutput","outputs":[{"internalType":"uint256","name":"amountIn","type":"uint256"}],"stateMutability":"payable","type":"function"},{"inputs":[{"components":[{"internalType":"address","name":"tokenIn","type":"address"},{"internalType":"address","name":"tokenOut","type":"address"},{"internalType":"address","name":"recipient","type":"address"},{"internalType":"uint256","name":"deadline","type":"uint256"},{"internalType":"uint256","name":"amountOut","type":"uint256"},{"internalType":"uint256","name":"amountInMaximum","type":"uint256"},{"internalType":"uint160","name":"limitSqrtPrice","type":"uint160"}],"internalType":"struct ISwapRouter.ExactOutputSingleParams","name":"params","type":"tuple"}],"name":"exactOutputSingle","outputs":[{"internalType":"uint256","name":"amountIn","type":"uint256"}],"stateMutability":"payable","type":"function"},{"inputs":[],"name":"factory","outputs":[{"internalType":"address","name":"","type":"address"}],"stateMutability":"view","type":"function"},{"inputs":[{"internalType":"bytes[]","name":"data","type":"bytes[]"}],"name":"multicall","outputs":[{"internalType":"bytes[]","name":"results","type":"bytes[]"}],"stateMutability":"payable","type":"function"},{"inputs":[],"name":"poolDeployer","outputs":[{"internalType":"address","name":"","type":"address"}],"stateMutability":"view","type":"function"},{"inputs":[],"name":"refundNativeToken","outputs":[],"stateMutability":"payable","type":"function"},{"inputs":[{"internalType":"address","name":"token","type":"address"},{"internalType":"uint256","name":"value","type":"uint256"},{"internalType":"uint256","name":"deadline","type":"uint256"},{"internalType":"uint8","name":"v","type":"uint8"},{"internalType":"bytes32","name":"r","type":"bytes32"},{"internalType":"bytes32","name":"s","type":"bytes32"}],"name":"selfPermit","outputs":[],"stateMutability":"payable","type":"function"},{"inputs":[{"internalType":"address","name":"token","type":"address"},{"internalType":"uint256","name":"nonce","type":"uint256"},{"internalType":"uint256","name":"expiry","type":"uint256"},{"internalType":"uint8","name":"v","type":"uint8"},{"internalType":"bytes32","name":"r","type":"bytes32"},{"internalType":"bytes32","name":"s","type":"bytes32"}],"name":"selfPermitAllowed","outputs":[],"stateMutability":"payable","type":"function"},{"inputs":[{"internalType":"address","name":"token","type":"address"},{"internalType":"uint256","name":"nonce","type":"uint256"},{"internalType":"uint256","name":"expiry","type":"uint256"},{"internalType":"uint8","name":"v","type":"uint8"},{"internalType":"bytes32","name":"r","type":"bytes32"},{"internalType":"bytes32","name":"s","type":"bytes32"}],"name":"selfPermitAllowedIfNecessary","outputs":[],"stateMutability":"payable","type":"function"},{"inputs":[{"internalType":"address","name":"token","type":"address"},{"internalType":"uint256","name":"value","type":"uint256"},{"internalType":"uint256","name":"deadline","type":"uint256"},{"internalType":"uint8","name":"v","type":"uint8"},{"internalType":"bytes32","name":"r","type":"bytes32"},{"internalType":"bytes32","name":"s","type":"bytes32"}],"name":"selfPermitIfNecessary","outputs":[],"stateMutability":"payable","type":"function"},{"inputs":[{"internalType":"address","name":"token","type":"address"},{"internalType":"uint256","name":"amountMinimum","type":"uint256"},{"internalType":"address","name":"recipient","type":"address"}],"name":"sweepToken","outputs":[],"stateMutability":"payable","type":"function"},{"inputs":[{"internalType":"address","name":"token","type":"address"},{"internalType":"uint256","name":"amountMinimum","type":"uint256"},{"internalType":"address","name":"recipient","type":"address"},{"internalType":"uint256","name":"feeBips","type":"uint256"},{"internalType":"address","name":"feeRecipient","type":"address"}],"name":"sweepTokenWithFee","outputs":[],"stateMutability":"payable","type":"function"},{"inputs":[{"internalType":"uint256","name":"amountMinimum","type":"uint256"},{"internalType":"address","name":"recipient","type":"address"}],"name":"unwrapWNativeToken","outputs":[],"stateMutability":"payable","type":"function"},{"inputs":[{"internalType":"uint256","name":"amountMinimum","type":"uint256"},{"internalType":"address","name":"recipient","type":"address"},{"internalType":"uint256","name":"feeBips","type":"uint256"},{"internalType":"address","name":"feeRecipient","type":"address"}],"name":"unwrapWNativeTokenWithFee","outputs":[],"stateMutability":"payable","type":"function"},{"stateMutability":"payable","type":"receive"},{"inputs":[],"name":"alreadyInitialized","type":"error"},{"inputs":[],"name":"arithmeticError","type":"error"},{"inputs":[],"name":"bottomTickLowerThanMIN","type":"error"},{"inputs":[],"name":"dynamicFeeActive","type":"error"},{"inputs":[],"name":"dynamicFeeDisabled","type":"error"},{"inputs":[],"name":"flashInsufficientPaid0","type":"error"},{"inputs":[],"name":"flashInsufficientPaid1","type":"error"},{"inputs":[],"name":"insufficientInputAmount","type":"error"},{"inputs":[],"name":"invalidAmountRequired","type":"error"},{"inputs":[{"internalType":"bytes4","name":"expectedSelector","type":"bytes4"}],"name":"invalidHookResponse","type":"error"},{"inputs":[],"name":"invalidLimitSqrtPrice","type":"error"},{"inputs":[],"name":"invalidNewCommunityFee","type":"error"},{"inputs":[],"name":"invalidNewTickSpacing","type":"error"},{"inputs":[],"name":"liquidityAdd","type":"error"},{"inputs":[],"name":"liquidityOverflow","type":"error"},{"inputs":[],"name":"liquiditySub","type":"error"},{"inputs":[],"name":"locked","type":"error"},{"inputs":[],"name":"notAllowed","type":"error"},{"inputs":[],"name":"notInitialized","type":"error"},{"inputs":[],"name":"pluginIsNotConnected","type":"error"},{"inputs":[],"name":"priceOutOfRange","type":"error"},{"inputs":[],"name":"tickInvalidLinks","type":"error"},{"inputs":[],"name":"tickIsNotInitialized","type":"error"},{"inputs":[],"name":"tickIsNotSpaced","type":"error"},{"inputs":[],"name":"tickOutOfRange","type":"error"},{"inputs":[],"name":"topTickAboveMAX","type":"error"},{"inputs":[],"name":"topTickLowerOrEqBottomTick","type":"error"},{"inputs":[],"name":"transferFailed","type":"error"},{"inputs":[],"name":"zeroAmountRequired","type":"error"},{"inputs":[],"name":"zeroLiquidityActual","type":"error"},{"inputs":[],"name":"zeroLiquidityDesired","type":"error"}]}