{"address":"0x503C9244896C25f9cC6f673f379E796EeF64d6F2","bytecode":"0x608060405234801561001057600080fd5b50610f15806100206000396000f3fe608060405234801561001057600080fd5b50600436106100415760003560e01c8063351fb47814610046578063c5493f771461006f578063ec92d7fa14610082575b600080fd5b610059610054366004610b41565b6100a2565b6040516100669190610b7e565b60405180910390f35b61005961007d366004610c04565b61029d565b610095610090366004610c5a565b6104a1565b6040516100669190610c86565b6040517fc677e3e0000000000000000000000000000000000000000000000000000000008152600182900b600482015260609060009073ffffffffffffffffffffffffffffffffffffffff85169063c677e3e090602401602060405180830381865afa158015610116573d6000803e3d6000fd5b505050506040513d601f19601f8201168201806040525081019061013a9190610cdf565b90506000805b610100811015610164576001811b83161561015c576001909101905b600101610140565b508067ffffffffffffffff81111561017e5761017e610cf8565b6040519080825280602002602001820160405280156101e757816020015b60408051606081018252600080825260208083018290529282015282527fffffffffffffffffffffffffffffffffffffffffffffffffffffffffffffffff90920191018161019c5790505b50925060005b610100811015610294576001811b83161561028c57600885901b60020b8101600080610219898461086d565b505091506fffffffffffffffffffffffffffffffff16915060405180606001604052808460020b815260200182600f0b8152602001836fffffffffffffffffffffffffffffffff168152508786600190039650868151811061027d5761027d610d27565b60200260200101819052505050505b6001016101ed565b50505092915050565b60608360008467ffffffffffffffff8111156102bb576102bb610cf8565b6040519080825280602002602001820160405280156102e4578160200160208202803683370190505b506040517ff30dba93000000000000000000000000000000000000000000000000000000008152600284900b600482015290935083915060009081908190819073ffffffffffffffffffffffffffffffffffffffff8c169063f30dba939060240160c060405180830381865afa158015610362573d6000803e3d6000fd5b505050506040513d601f19601f820116820180604052508101906103869190610d56565b505093509350935093508060020b8260020b03610403576040517f08c379a000000000000000000000000000000000000000000000000000000000815260206004820152601460248201527f496e76616c6964207374617274696e675469636b000000000000000000000000604482015260640160405180910390fd5b60405160005b8a81101561048e578782528460208301528560408301528160208a0160208302015260608201915060008a61043e5784610440565b835b90508860020b8160020b0361045b57600182018a525061048e565b8098506104688e8a61086d565b6fffffffffffffffffffffffffffffffff90931699509097509550935050600101610409565b5060405250949998505050505050505050565b6104a9610abb565b60008373ffffffffffffffffffffffffffffffffffffffff1663578b9a366040518163ffffffff1660e01b8152600401602060405180830381865afa1580156104f6573d6000803e3d6000fd5b505050506040513d601f19601f8201168201806040525081019061051a9190610dc5565b905060006008610532610d8a600287900b831d610e21565b60020b901d9050600080600161ffff84161b841663ffffffff16156106245760006105648860088960020b901d6108e4565b90506105708188610924565b90935091508161062257600061058f610d8a60028a900b60081d610e21565b61059a906001610e21565b905060006105af8a60088460010b901d610a7b565b90506000806105c1838560010b610924565b91509150801561060f57600060086105db610d8a85610e68565b60020b901b90506105f78d6105f2610d8a86610e68565b6108e4565b95506106038682610924565b909850965061061d9050565b8761061981610ea9565b9850505b505050505b505b806106d857600061063e8563ffffffff168560010b610924565b509050600061064d8983610a7b565b90506000806106638360088660020b901b610924565b9150915080156106a757600061067f8c6105f2610d8a86610e68565b905061069d816008610693610d8a87610e68565b60020b901b610924565b5096506106d39050565b6106d07ffffffffffffffffffffffffffffffffffffffffffffffffffffffffffff27618610eca565b95505b505050505b8560020b8260020b036107a95760008060006106f48a8a61086d565b93505092506fffffffffffffffffffffffffffffffff16925060405180606001604052808a60020b815260200183600f0b8152602001846fffffffffffffffffffffffffffffffff168152508860006002811061075357610753610d27565b60200201526107628a8261086d565b50506040805160608101825260029490940b8452600f9190910b6020808501919091526fffffffffffffffffffffffffffffffff9290921690830152880152506108639050565b60008060006107b88a8661086d565b50925092506fffffffffffffffffffffffffffffffff16925060405180606001604052808660020b815260200183600f0b8152602001846fffffffffffffffffffffffffffffffff168152508860016002811061081757610817610d27565b60200201526108268a8261086d565b50506040805160608101825260029490940b8452600f9190910b60208401526fffffffffffffffffffffffffffffffff9190911690820152875250505b5050505092915050565b60008060008060405160605160805160a0517ff30dba93000000000000000000000000000000000000000000000000000000006000528860045260c06000602460008d5afa5060005197506020519650604051955060605194508360405282606052816080528060a0525050505092959194509250565b60007fc677e3e000000000000000000000000000000000000000000000000000000000600052816004526020600060246000865afa505060005192915050565b60008060ff831684811c808303610940578460ff179350610a72565b7f555555555555555555555555555555555555555555555555555555555555555560008290038216908116156fffffffffffffffffffffffffffffffff82161560071b1777ffffffffffffffff0000000000000000ffffffffffffffff82161560061b177bffffffff00000000ffffffff00000000ffffffff00000000ffffffff82161560051b177dffff0000ffff0000ffff0000ffff0000ffff0000ffff0000ffff0000ffff82161560041b177eff00ff00ff00ff00ff00ff00ff00ff00ff00ff00ff00ff00ff00ff00ff00ff82161560031b177f0f0f0f0f0f0f0f0f0f0f0f0f0f0f0f0f0f0f0f0f0f0f0f0f0f0f0f0f0f0f0f0f82161560021b177f33333333333333333333333333333333333333333333333333333333333333339091161560011b1760ff1685019350600192505b50509250929050565b60007fd861903700000000000000000000000000000000000000000000000000000000600052816004526020600060246000865afa505060005192915050565b60405180604001604052806002905b60408051606081018252600080825260208083018290529282015282527fffffffffffffffffffffffffffffffffffffffffffffffffffffffffffffffff909201910181610aca5790505090565b803573ffffffffffffffffffffffffffffffffffffffff81168114610b3c57600080fd5b919050565b60008060408385031215610b5457600080fd5b610b5d83610b18565b915060208301358060010b8114610b7357600080fd5b809150509250929050565b6020808252825182820181905260009190848201906040850190845b81811015610be6578351805160020b8452602080820151600f0b908501526040908101516fffffffffffffffffffffffffffffffff169084015260608301938501939250600101610b9a565b50909695505050505050565b8060020b8114610c0157600080fd5b50565b60008060008060808587031215610c1a57600080fd5b610c2385610b18565b93506020850135610c3381610bf2565b92506040850135915060608501358015158114610c4f57600080fd5b939692955090935050565b60008060408385031215610c6d57600080fd5b610c7683610b18565b91506020830135610b7381610bf2565b60c08101818360005b6002811015610294578151805160020b8452602080820151600f0b908501526040908101516fffffffffffffffffffffffffffffffff169084015260608301925060209190910190600101610c8f565b600060208284031215610cf157600080fd5b5051919050565b7f4e487b7100000000000000000000000000000000000000000000000000000000600052604160045260246000fd5b7f4e487b7100000000000000000000000000000000000000000000000000000000600052603260045260246000fd5b60008060008060008060c08789031215610d6f57600080fd5b86519550602087015180600f0b8114610d8757600080fd5b6040880151909550610d9881610bf2565b6060880151909450610da981610bf2565b809350506080870151915060a087015190509295509295509295565b600060208284031215610dd757600080fd5b815163ffffffff81168114610deb57600080fd5b9392505050565b7f4e487b7100000000000000000000000000000000000000000000000000000000600052601160045260246000fd5b600281810b9083900b01627fffff81137fffffffffffffffffffffffffffffffffffffffffffffffffffffffffff80000082121715610e6257610e62610df2565b92915050565b600282810b9082900b037fffffffffffffffffffffffffffffffffffffffffffffffffffffffffff8000008112627fffff82131715610e6257610e62610df2565b600061ffff808316818103610ec057610ec0610df2565b6001019392505050565b60008160020b7fffffffffffffffffffffffffffffffffffffffffffffffffffffffffff8000008103610eff57610eff610df2565b6000039291505056fea164736f6c6343000814000a","abi":[{"inputs":[{"internalType":"address","name":"pool","type":"address"},{"internalType":"int24","name":"targetTick","type":"int24"}],"name":"getClosestActiveTicks","outputs":[{"components":[{"internalType":"int24","name":"tick","type":"int24"},{"internalType":"int128","name":"liquidityNet","type":"int128"},{"internalType":"uint128","name":"liquidityGross","type":"uint128"}],"internalType":"struct ITickLens.PopulatedTick[2]","name":"populatedTicks","type":"tuple[2]"}],"stateMutability":"view","type":"function"},{"inputs":[{"internalType":"address","name":"pool","type":"address"},{"internalType":"int24","name":"startingTick","type":"int24"},{"internalType":"uint256","name":"amount","type":"uint256"},{"internalType":"bool","name":"upperDirection","type":"bool"}],"name":"getNextActiveTicks","outputs":[{"components":[{"internalType":"int24","name":"tick","type":"int24"},{"internalType":"int128","name":"liquidityNet","type":"int128"},{"internalType":"uint128","name":"liquidityGross","type":"uint128"}],"internalType":"struct ITickLens.PopulatedTick[]","name":"populatedTicks","type":"tuple[]"}],"stateMutability":"view","type":"function"},{"inputs":[{"internalType":"address","name":"pool","type":"address"},{"internalType":"int16","name":"tickTableIndex","type":"int16"}],"name":"getPopulatedTicksInWord","outputs":[{"components":[{"internalType":"int24","name":"tick","type":"int24"},{"internalType":"int128","name":"liquidityNet","type":"int128"},{"internalType":"uint128","name":"liquidityGross","type":"uint128"}],"internalType":"struct ITickLens.PopulatedTick[]","name":"populatedTicks","type":"tuple[]"}],"stateMutability":"view","type":"function"}]}