{"address":"0x07327f0EDD5594Df24fA3a05C468CC1D5E80E95F","bytecode":"0x60a06040523480156200001157600080fd5b5060405162002781380380620027818339810160408190526200003491620004b7565b6200003f33620000e7565b6001600160a01b0381166200005357600080fd5b6001600160a01b0381166080526004805466ffffffffff00001916643c01f40000179055604051603c81527f7d7979096f943139ebee59f01c077a0f0766d06c40c86d596f23ed2561547cce9060200160405180910390a16040516101f481527fddc0c6f0b581e0d51bfe90ff138e4a548f94515c4dbcb12f5e98fdf0f75039839060200160405180910390a15062000537565b620001066000620001006000546001600160a01b031690565b62000145565b620001118162000170565b6000546001600160a01b03161562000142576200014260006200013c6000546001600160a01b031690565b6200018b565b50565b620001518282620001b1565b60008281526003602052604090206200016b908262000236565b505050565b600180546001600160a01b0319169055620001428162000256565b620001978282620002a6565b60008281526003602052604090206200016b90826200034a565b60008281526002602090815260408083206001600160a01b038516845290915290205460ff1615620002325760008281526002602090815260408083206001600160a01b0385168085529252808320805460ff1916905551339285917ff6391f5c32d9c69d2a47ea670b442974b53935d1edc7fd64eb21e047a839171b9190a45b5050565b60006200024d836001600160a01b03841662000361565b90505b92915050565b600080546001600160a01b038381166001600160a01b0319831681178455604051919092169283917f8be0079c531659141344cd1fd0a4f28419497f9722a3daafe3b4186f6b6457e09190a35050565b60008281526002602090815260408083206001600160a01b038516845290915290205460ff16620002325760008281526002602090815260408083206001600160a01b03851684529091529020805460ff19166001179055620003063390565b6001600160a01b0316816001600160a01b0316837f2f8788117e7eff1d82e926ec794901d17c78024a50270940304540a733656f0d60405160405180910390a45050565b60006200024d836001600160a01b03841662000465565b600081815260018301602052604081205480156200045a57600062000388600183620004e9565b85549091506000906200039e90600190620004e9565b90508181146200040a576000866000018281548110620003c257620003c26200050b565b9060005260206000200154905080876000018481548110620003e857620003e86200050b565b6000918252602080832090910192909255918252600188019052604090208390555b85548690806200041e576200041e62000521565b60019003818190600052602060002001600090559055856001016000868152602001908152602001600020600090556001935050505062000250565b600091505062000250565b6000818152600183016020526040812054620004ae5750815460018181018455600084815260208082209093018490558454848252828601909352604090209190915562000250565b50600062000250565b600060208284031215620004ca57600080fd5b81516001600160a01b0381168114620004e257600080fd5b9392505050565b818103818111156200025057634e487b7160e01b600052601160045260246000fd5b634e487b7160e01b600052603260045260246000fd5b634e487b7160e01b600052603160045260246000fd5b608051612220620005616000396000818161034101528181610d8a01526110fd01526122206000f3fe608060405234801561001057600080fd5b506004361061025c5760003560e01c80638da5cb5b11610145578063d8ed2241116100bd578063e34336151161008c578063e8ae2b6911610071578063e8ae2b6914610622578063f09489ac14610635578063f2fde38b1461064857600080fd5b8063e3433615146105fc578063e6a439051461060f57600080fd5b8063d8ed224114610563578063d9a641e114610576578063dc6fd8ab146105b7578063e30c3978146105de57600080fd5b8063b500a48b11610114578063d0ad2792116100f9578063d0ad279214610510578063d547741f14610530578063d8a06f731461054357600080fd5b8063b500a48b146104d6578063ca15c873146104fd57600080fd5b80638da5cb5b146104575780639010d07c1461047557806391d1485414610488578063a217fddf146104ce57600080fd5b806336568abe116101d8578063715018a6116101a757806379ba50971161018c57806379ba5097146103e557806382b13d8d146103ed5780638d5a87111461044457600080fd5b8063715018a6146103ca57806377326584146103d257600080fd5b806336568abe146103885780633ea7fbdb1461039b578063469388c4146103ae5780635a6c72d0146103b657600080fd5b80632939dd971161022f5780632f2ff15d116102145780632f2ff15d146103085780632f8a39dd1461031b5780633119049a1461033c57600080fd5b80632939dd97146102cd57806329bc3446146102e057600080fd5b806301ffc9a714610261578063084bfff914610289578063238a1d74146102a0578063248a9ca3146102aa575b600080fd5b61027461026f366004611e71565b61065b565b60405190151581526020015b60405180910390f35b61029260055481565b604051908152602001610280565b6102a86106b7565b005b6102926102b8366004611eb3565b60009081526002602052604090206001015490565b6102a86102db366004611eee565b610709565b6004546102f590640100000000900460020b81565b60405160029190910b8152602001610280565b6102a8610316366004611f0b565b6107b3565b6004546103299061ffff1681565b60405161ffff9091168152602001610280565b6103637f000000000000000000000000000000000000000000000000000000000000000081565b60405173ffffffffffffffffffffffffffffffffffffffff9091168152602001610280565b6102a8610396366004611f0b565b6107dd565b6102a86103a9366004611eee565b610895565b6102a8610964565b6004546103299062010000900461ffff1681565b6102a86109c3565b6102a86103e0366004611f3b565b610a34565b6102a8610ad3565b6104006103fb366004611eee565b610b88565b6040805161ffff958616815260029490940b6020850152919093169082015273ffffffffffffffffffffffffffffffffffffffff9091166060820152608001610280565b6102a8610452366004611f3b565b610c6e565b60005473ffffffffffffffffffffffffffffffffffffffff16610363565b610363610483366004611f5f565b610d2b565b610274610496366004611f0b565b600091825260026020908152604080842073ffffffffffffffffffffffffffffffffffffffff93909316845291905290205460ff1690565b610292600081565b6102927fb73ce166ead2f8e9add217713a7989e4edfba9625f71dfd2516204bb67ad344281565b61029261050b366004611eb3565b610d4a565b6006546103639073ffffffffffffffffffffffffffffffffffffffff1681565b6102a861053e366004611f0b565b610d61565b6007546103639073ffffffffffffffffffffffffffffffffffffffff1681565b610363610571366004611f81565b610d86565b610363610584366004611f81565b600860209081526000928352604080842090915290825290205473ffffffffffffffffffffffffffffffffffffffff1681565b6102927ff96d2474815c32e070cd63233f06af5413efc5dcb430aee4ff18cc29007c562d81565b60015473ffffffffffffffffffffffffffffffffffffffff16610363565b61036361060a366004611f81565b610edf565b61036361061d366004611f81565b6112db565b610274610630366004611f0b565b61135a565b6102a8610643366004611faf565b6113e7565b6102a8610656366004611eee565b61149c565b60007fffffffff0000000000000000000000000000000000000000000000000000000082167f5a05180f0000000000000000000000000000000000000000000000000000000014806106b157506106b18261154b565b92915050565b6106bf6115e2565b6005546000036106ce57600080fd5b60006005556040514281527fa2492902a0a1d28dc73e6ab22e473239ef077bb7bc8174dc7dab9fc0818e7135906020015b60405180910390a1565b6107116115e2565b60065473ffffffffffffffffffffffffffffffffffffffff9081169082160361073957600080fd5b600680547fffffffffffffffffffffffff00000000000000000000000000000000000000001673ffffffffffffffffffffffffffffffffffffffff83169081179091556040519081527f5e38e259ec1f8a38b98fc65a27e266bb9cc87c76eb8c96c957450d1cff4591ef906020015b60405180910390a150565b6000828152600260205260409020600101546107ce81611665565b6107d8838361166f565b505050565b73ffffffffffffffffffffffffffffffffffffffff81163314610887576040517f08c379a000000000000000000000000000000000000000000000000000000000815260206004820152602f60248201527f416363657373436f6e74726f6c3a2063616e206f6e6c792072656e6f756e636560448201527f20726f6c657320666f722073656c66000000000000000000000000000000000060648201526084015b60405180910390fd5b6108918282611691565b5050565b61089d6115e2565b60075473ffffffffffffffffffffffffffffffffffffffff908116908216036108c557600080fd5b73ffffffffffffffffffffffffffffffffffffffff81166108f15760045461ffff16156108f157600080fd5b600780547fffffffffffffffffffffffff00000000000000000000000000000000000000001673ffffffffffffffffffffffffffffffffffffffff83169081179091556040519081527fa006ea05a14783821b0248e75d2342cd1681b07509e10a0f08487b080c29dea8906020016107a8565b61096c6115e2565b6005541561097957600080fd5b4260058190557fcd60f5d54996130c21c3f063279b39230bcbafc12f763a1ac1dfaec2e9b61d29906109ae6201518082612001565b604080519283526020830191909152016106ff565b6109cb6115e2565b6005546000036109da57600080fd5b62015180600554426109ec9190612014565b10156109f757600080fd5b6000600555610a046116b3565b6040514281527fa24203c457ce43a097fa0c491fc9cf5e0a893af87a5e0a9785f29491deb11e23906020016106ff565b610a3c6115e2565b61c35061ffff82161115610a4f57600080fd5b60045461ffff808316620100009092041603610a6a57600080fd5b600480547fffffffffffffffffffffffffffffffffffffffffffffffffffffffff0000ffff166201000061ffff8416908102919091179091556040519081527fddc0c6f0b581e0d51bfe90ff138e4a548f94515c4dbcb12f5e98fdf0f7503983906020016107a8565b600154339073ffffffffffffffffffffffffffffffffffffffff168114610b7c576040517f08c379a000000000000000000000000000000000000000000000000000000000815260206004820152602960248201527f4f776e61626c6532537465703a2063616c6c6572206973206e6f74207468652060448201527f6e6577206f776e65720000000000000000000000000000000000000000000000606482015260840161087e565b610b85816116c1565b50565b60075460009081908190819073ffffffffffffffffffffffffffffffffffffffff1615610c46576007546040517f7570e38900000000000000000000000000000000000000000000000000000000815273ffffffffffffffffffffffffffffffffffffffff878116600483015290911690637570e38990602401602060405180830381865afa158015610c1f573d6000803e3d6000fd5b505050506040513d601f19601f82011682018060405250810190610c439190612027565b90505b60045461ffff80821697640100000000830460020b9750620100009092041694509092509050565b610c766115e2565b6103e861ffff82161115610c8957600080fd5b60045461ffff808316911603610c9e57600080fd5b61ffff811615610cca5760075473ffffffffffffffffffffffffffffffffffffffff16610cca57600080fd5b600480547fffffffffffffffffffffffffffffffffffffffffffffffffffffffffffff00001661ffff83169081179091556040519081527f6b5c342391f543846fce47a925e7eba910f7bec232b08633308ca93fdd0fdf0d906020016107a8565b6000828152600360205260408120610d43908361173a565b9392505050565b60008181526003602052604081206106b190611746565b600082815260026020526040902060010154610d7c81611665565b6107d88383611691565b60007f00000000000000000000000000000000000000000000000000000000000000008383604051602001610dde92919073ffffffffffffffffffffffffffffffffffffffff92831681529116602082015260400190565b604080517fffffffffffffffffffffffffffffffffffffffffffffffffffffffffffffffe0818403018152908290528051602091820120610ea2939290917ff96d2474815c32e070cd63233f06af5413efc5dcb430aee4ff18cc29007c562d91017fff00000000000000000000000000000000000000000000000000000000000000815260609390931b7fffffffffffffffffffffffffffffffffffffffff0000000000000000000000001660018401526015830191909152603582015260550190565b604080517fffffffffffffffffffffffffffffffffffffffffffffffffffffffffffffffe081840301815291905280516020909101209392505050565b60008173ffffffffffffffffffffffffffffffffffffffff168373ffffffffffffffffffffffffffffffffffffffff1603610f1957600080fd5b6000808373ffffffffffffffffffffffffffffffffffffffff168573ffffffffffffffffffffffffffffffffffffffff1610610f56578385610f59565b84845b909250905073ffffffffffffffffffffffffffffffffffffffff8216610f7e57600080fd5b73ffffffffffffffffffffffffffffffffffffffff828116600090815260086020908152604080832085851684529091529020541615610fbd57600080fd5b60065460009073ffffffffffffffffffffffffffffffffffffffff16156110a85760065473ffffffffffffffffffffffffffffffffffffffff16639533ff106110068585610d86565b6040517fffffffff0000000000000000000000000000000000000000000000000000000060e084901b16815273ffffffffffffffffffffffffffffffffffffffff9182166004820152818716602482015290851660448201526064016020604051808303816000875af1158015611081573d6000803e3d6000fd5b505050506040513d601f19601f820116820180604052508101906110a59190612027565b90505b6040517fd9181cd300000000000000000000000000000000000000000000000000000000815273ffffffffffffffffffffffffffffffffffffffff8281166004830152848116602483015283811660448301527f0000000000000000000000000000000000000000000000000000000000000000169063d9181cd3906064016020604051808303816000875af1158015611146573d6000803e3d6000fd5b505050506040513d601f19601f8201168201806040525081019061116a9190612027565b73ffffffffffffffffffffffffffffffffffffffff848116600081815260086020818152604080842089871680865290835281852080549789167fffffffffffffffffffffffff000000000000000000000000000000000000000098891681179091559383528185208686528352938190208054909616831790955593519081529397509290917f91ccaa7a278130b65168c3a0c8d3bcae84cf5e43704342bd3ec0b59e59c036db910160405180910390a360075473ffffffffffffffffffffffffffffffffffffffff16156112d2576007546040517fcbc4801500000000000000000000000000000000000000000000000000000000815273ffffffffffffffffffffffffffffffffffffffff86811660048301529091169063cbc48015906024016020604051808303816000875af11580156112ac573d6000803e3d6000fd5b505050506040513d601f19601f820116820180604052508101906112d09190612027565b505b50505092915050565b60008060008373ffffffffffffffffffffffffffffffffffffffff168573ffffffffffffffffffffffffffffffffffffffff161061131a57838561131d565b84845b73ffffffffffffffffffffffffffffffffffffffff9182166000908152600860209081526040808320938516835292905220541695945050505050565b60008173ffffffffffffffffffffffffffffffffffffffff1661139260005473ffffffffffffffffffffffffffffffffffffffff1690565b73ffffffffffffffffffffffffffffffffffffffff161480610d435750600083815260026020908152604080832073ffffffffffffffffffffffffffffffffffffffff8616845290915290205460ff16610d43565b6113ef6115e2565b6001600282900b121561140157600080fd5b6101f4600282900b131561141457600080fd5b6004546401000000009004600290810b9082900b0361143257600080fd5b600480547fffffffffffffffffffffffffffffffffffffffffffffffffff000000ffffffff1664010000000062ffffff841602179055604051600282900b81527f7d7979096f943139ebee59f01c077a0f0766d06c40c86d596f23ed2561547cce906020016107a8565b6114a46115e2565b600180547fffffffffffffffffffffffff00000000000000000000000000000000000000001673ffffffffffffffffffffffffffffffffffffffff831690811790915561150660005473ffffffffffffffffffffffffffffffffffffffff1690565b73ffffffffffffffffffffffffffffffffffffffff167f38d16b8cac22d99fc7c124b9cd0de2d3fa1faef420bfe791d8c362d765e2270060405160405180910390a350565b60007fffffffff0000000000000000000000000000000000000000000000000000000082167f7965db0b0000000000000000000000000000000000000000000000000000000014806106b157507f01ffc9a7000000000000000000000000000000000000000000000000000000007fffffffff000000000000000000000000000000000000000000000000000000008316146106b1565b60005473ffffffffffffffffffffffffffffffffffffffff163314611663576040517f08c379a000000000000000000000000000000000000000000000000000000000815260206004820181905260248201527f4f776e61626c653a2063616c6c6572206973206e6f7420746865206f776e6572604482015260640161087e565b565b610b858133611750565b611679828261180a565b60008281526003602052604090206107d890826118fe565b61169b8282611920565b60008281526003602052604090206107d890826119db565b6116bb6115e2565b61166360005b6116ea60006116e560005473ffffffffffffffffffffffffffffffffffffffff1690565b611691565b6116f3816119fd565b60005473ffffffffffffffffffffffffffffffffffffffff1615610b8557610b85600061173560005473ffffffffffffffffffffffffffffffffffffffff1690565b61166f565b6000610d438383611a2e565b60006106b1825490565b600082815260026020908152604080832073ffffffffffffffffffffffffffffffffffffffff8516845290915290205460ff166108915761179081611a58565b61179b836020611a77565b6040516020016117ac929190612068565b604080517fffffffffffffffffffffffffffffffffffffffffffffffffffffffffffffffe0818403018152908290527f08c379a000000000000000000000000000000000000000000000000000000000825261087e916004016120e9565b600082815260026020908152604080832073ffffffffffffffffffffffffffffffffffffffff8516845290915290205460ff1661089157600082815260026020908152604080832073ffffffffffffffffffffffffffffffffffffffff85168452909152902080547fffffffffffffffffffffffffffffffffffffffffffffffffffffffffffffff001660011790556118a03390565b73ffffffffffffffffffffffffffffffffffffffff168173ffffffffffffffffffffffffffffffffffffffff16837f2f8788117e7eff1d82e926ec794901d17c78024a50270940304540a733656f0d60405160405180910390a45050565b6000610d438373ffffffffffffffffffffffffffffffffffffffff8416611cba565b600082815260026020908152604080832073ffffffffffffffffffffffffffffffffffffffff8516845290915290205460ff161561089157600082815260026020908152604080832073ffffffffffffffffffffffffffffffffffffffff8516808552925280832080547fffffffffffffffffffffffffffffffffffffffffffffffffffffffffffffff0016905551339285917ff6391f5c32d9c69d2a47ea670b442974b53935d1edc7fd64eb21e047a839171b9190a45050565b6000610d438373ffffffffffffffffffffffffffffffffffffffff8416611d09565b600180547fffffffffffffffffffffffff0000000000000000000000000000000000000000169055610b8581611dfc565b6000826000018281548110611a4557611a4561213a565b9060005260206000200154905092915050565b60606106b173ffffffffffffffffffffffffffffffffffffffff831660145b60606000611a86836002612169565b611a91906002612001565b67ffffffffffffffff811115611aa957611aa9612180565b6040519080825280601f01601f191660200182016040528015611ad3576020820181803683370190505b5090507f300000000000000000000000000000000000000000000000000000000000000081600081518110611b0a57611b0a61213a565b60200101907effffffffffffffffffffffffffffffffffffffffffffffffffffffffffffff1916908160001a9053507f780000000000000000000000000000000000000000000000000000000000000081600181518110611b6d57611b6d61213a565b60200101907effffffffffffffffffffffffffffffffffffffffffffffffffffffffffffff1916908160001a9053506000611ba9846002612169565b611bb4906001612001565b90505b6001811115611c51577f303132333435363738396162636465660000000000000000000000000000000085600f1660108110611bf557611bf561213a565b1a60f81b828281518110611c0b57611c0b61213a565b60200101907effffffffffffffffffffffffffffffffffffffffffffffffffffffffffffff1916908160001a90535060049490941c93611c4a816121af565b9050611bb7565b508315610d43576040517f08c379a000000000000000000000000000000000000000000000000000000000815260206004820181905260248201527f537472696e67733a20686578206c656e67746820696e73756666696369656e74604482015260640161087e565b6000818152600183016020526040812054611d01575081546001818101845560008481526020808220909301849055845484825282860190935260409020919091556106b1565b5060006106b1565b60008181526001830160205260408120548015611df2576000611d2d600183612014565b8554909150600090611d4190600190612014565b9050818114611da6576000866000018281548110611d6157611d6161213a565b9060005260206000200154905080876000018481548110611d8457611d8461213a565b6000918252602080832090910192909255918252600188019052604090208390555b8554869080611db757611db76121e4565b6001900381819060005260206000200160009055905585600101600086815260200190815260200160002060009055600193505050506106b1565b60009150506106b1565b6000805473ffffffffffffffffffffffffffffffffffffffff8381167fffffffffffffffffffffffff0000000000000000000000000000000000000000831681178455604051919092169283917f8be0079c531659141344cd1fd0a4f28419497f9722a3daafe3b4186f6b6457e09190a35050565b600060208284031215611e8357600080fd5b81357fffffffff0000000000000000000000000000000000000000000000000000000081168114610d4357600080fd5b600060208284031215611ec557600080fd5b5035919050565b73ffffffffffffffffffffffffffffffffffffffff81168114610b8557600080fd5b600060208284031215611f0057600080fd5b8135610d4381611ecc565b60008060408385031215611f1e57600080fd5b823591506020830135611f3081611ecc565b809150509250929050565b600060208284031215611f4d57600080fd5b813561ffff81168114610d4357600080fd5b60008060408385031215611f7257600080fd5b50508035926020909101359150565b60008060408385031215611f9457600080fd5b8235611f9f81611ecc565b91506020830135611f3081611ecc565b600060208284031215611fc157600080fd5b81358060020b8114610d4357600080fd5b7f4e487b7100000000000000000000000000000000000000000000000000000000600052601160045260246000fd5b808201808211156106b1576106b1611fd2565b818103818111156106b1576106b1611fd2565b60006020828403121561203957600080fd5b8151610d4381611ecc565b60005b8381101561205f578181015183820152602001612047565b50506000910152565b7f416363657373436f6e74726f6c3a206163636f756e74200000000000000000008152600083516120a0816017850160208801612044565b7f206973206d697373696e6720726f6c652000000000000000000000000000000060179184019182015283516120dd816028840160208801612044565b01602801949350505050565b6020815260008251806020840152612108816040850160208701612044565b601f017fffffffffffffffffffffffffffffffffffffffffffffffffffffffffffffffe0169190910160400192915050565b7f4e487b7100000000000000000000000000000000000000000000000000000000600052603260045260246000fd5b80820281158282048414176106b1576106b1611fd2565b7f4e487b7100000000000000000000000000000000000000000000000000000000600052604160045260246000fd5b6000816121be576121be611fd2565b507fffffffffffffffffffffffffffffffffffffffffffffffffffffffffffffffff0190565b7f4e487b7100000000000000000000000000000000000000000000000000000000600052603160045260246000fdfea164736f6c6343000814000a","abi":[{"inputs":[{"internalType":"address","name":"_poolDeployer","type":"address"}],"stateMutability":"nonpayable","type":"constructor"},{"anonymous":false,"inputs":[{"indexed":false,"internalType":"uint16","name":"newDefaultCommunityFee","type":"uint16"}],"name":"DefaultCommunityFee","type":"event"},{"anonymous":false,"inputs":[{"indexed":false,"internalType":"uint16","name":"newDefaultFee","type":"uint16"}],"name":"DefaultFee","type":"event"},{"anonymous":false,"inputs":[{"indexed":false,"internalType":"address","name":"defaultPluginFactoryAddress","type":"address"}],"name":"DefaultPluginFactory","type":"event"},{"anonymous":false,"inputs":[{"indexed":false,"internalType":"int24","name":"newDefaultTickspacing","type":"int24"}],"name":"DefaultTickspacing","type":"event"},{"anonymous":false,"inputs":[{"indexed":true,"internalType":"address","name":"previousOwner","type":"address"},{"indexed":true,"internalType":"address","name":"newOwner","type":"address"}],"name":"OwnershipTransferStarted","type":"event"},{"anonymous":false,"inputs":[{"indexed":true,"internalType":"address","name":"previousOwner","type":"address"},{"indexed":true,"internalType":"address","name":"newOwner","type":"address"}],"name":"OwnershipTransferred","type":"event"},{"anonymous":false,"inputs":[{"indexed":true,"internalType":"address","name":"token0","type":"address"},{"indexed":true,"internalType":"address","name":"token1","type":"address"},{"indexed":false,"internalType":"address","name":"pool","type":"address"}],"name":"Pool","type":"event"},{"anonymous":false,"inputs":[{"indexed":false,"internalType":"uint256","name":"timestamp","type":"uint256"}],"name":"RenounceOwnershipFinish","type":"event"},{"anonymous":false,"inputs":[{"indexed":false,"internalType":"uint256","name":"timestamp","type":"uint256"},{"indexed":false,"internalType":"uint256","name":"finishTimestamp","type":"uint256"}],"name":"RenounceOwnershipStart","type":"event"},{"anonymous":false,"inputs":[{"indexed":false,"internalType":"uint256","name":"timestamp","type":"uint256"}],"name":"RenounceOwnershipStop","type":"event"},{"anonymous":false,"inputs":[{"indexed":true,"internalType":"bytes32","name":"role","type":"bytes32"},{"indexed":true,"internalType":"bytes32","name":"previousAdminRole","type":"bytes32"},{"indexed":true,"internalType":"bytes32","name":"newAdminRole","type":"bytes32"}],"name":"RoleAdminChanged","type":"event"},{"anonymous":false,"inputs":[{"indexed":true,"internalType":"bytes32","name":"role","type":"bytes32"},{"indexed":true,"internalType":"address","name":"account","type":"address"},{"indexed":true,"internalType":"address","name":"sender","type":"address"}],"name":"RoleGranted","type":"event"},{"anonymous":false,"inputs":[{"indexed":true,"internalType":"bytes32","name":"role","type":"bytes32"},{"indexed":true,"internalType":"address","name":"account","type":"address"},{"indexed":true,"internalType":"address","name":"sender","type":"address"}],"name":"RoleRevoked","type":"event"},{"anonymous":false,"inputs":[{"indexed":false,"internalType":"address","name":"newVaultFactory","type":"address"}],"name":"VaultFactory","type":"event"},{"inputs":[],"name":"DEFAULT_ADMIN_ROLE","outputs":[{"internalType":"bytes32","name":"","type":"bytes32"}],"stateMutability":"view","type":"function"},{"inputs":[],"name":"POOLS_ADMINISTRATOR_ROLE","outputs":[{"internalType":"bytes32","name":"","type":"bytes32"}],"stateMutability":"view","type":"function"},{"inputs":[],"name":"POOL_INIT_CODE_HASH","outputs":[{"internalType":"bytes32","name":"","type":"bytes32"}],"stateMutability":"view","type":"function"},{"inputs":[],"name":"acceptOwnership","outputs":[],"stateMutability":"nonpayable","type":"function"},{"inputs":[{"internalType":"address","name":"token0","type":"address"},{"internalType":"address","name":"token1","type":"address"}],"name":"computePoolAddress","outputs":[{"internalType":"address","name":"pool","type":"address"}],"stateMutability":"view","type":"function"},{"inputs":[{"internalType":"address","name":"tokenA","type":"address"},{"internalType":"address","name":"tokenB","type":"address"}],"name":"createPool","outputs":[{"internalType":"address","name":"pool","type":"address"}],"stateMutability":"nonpayable","type":"function"},{"inputs":[],"name":"defaultCommunityFee","outputs":[{"internalType":"uint16","name":"","type":"uint16"}],"stateMutability":"view","type":"function"},{"inputs":[{"internalType":"address","name":"pool","type":"address"}],"name":"defaultConfigurationForPool","outputs":[{"internalType":"uint16","name":"communityFee","type":"uint16"},{"internalType":"int24","name":"tickSpacing","type":"int24"},{"internalType":"uint16","name":"fee","type":"uint16"},{"internalType":"address","name":"communityVault","type":"address"}],"stateMutability":"view","type":"function"},{"inputs":[],"name":"defaultFee","outputs":[{"internalType":"uint16","name":"","type":"uint16"}],"stateMutability":"view","type":"function"},{"inputs":[],"name":"defaultPluginFactory","outputs":[{"internalType":"contract IAlgebraPluginFactory","name":"","type":"address"}],"stateMutability":"view","type":"function"},{"inputs":[],"name":"defaultTickspacing","outputs":[{"internalType":"int24","name":"","type":"int24"}],"stateMutability":"view","type":"function"},{"inputs":[{"internalType":"address","name":"tokenA","type":"address"},{"internalType":"address","name":"tokenB","type":"address"}],"name":"getPair","outputs":[{"internalType":"address","name":"pair","type":"address"}],"stateMutability":"view","type":"function"},{"inputs":[{"internalType":"bytes32","name":"role","type":"bytes32"}],"name":"getRoleAdmin","outputs":[{"internalType":"bytes32","name":"","type":"bytes32"}],"stateMutability":"view","type":"function"},{"inputs":[{"internalType":"bytes32","name":"role","type":"bytes32"},{"internalType":"uint256","name":"index","type":"uint256"}],"name":"getRoleMember","outputs":[{"internalType":"address","name":"","type":"address"}],"stateMutability":"view","type":"function"},{"inputs":[{"internalType":"bytes32","name":"role","type":"bytes32"}],"name":"getRoleMemberCount","outputs":[{"internalType":"uint256","name":"","type":"uint256"}],"stateMutability":"view","type":"function"},{"inputs":[{"internalType":"bytes32","name":"role","type":"bytes32"},{"internalType":"address","name":"account","type":"address"}],"name":"grantRole","outputs":[],"stateMutability":"nonpayable","type":"function"},{"inputs":[{"internalType":"bytes32","name":"role","type":"bytes32"},{"internalType":"address","name":"account","type":"address"}],"name":"hasRole","outputs":[{"internalType":"bool","name":"","type":"bool"}],"stateMutability":"view","type":"function"},{"inputs":[{"internalType":"bytes32","name":"role","type":"bytes32"},{"internalType":"address","name":"account","type":"address"}],"name":"hasRoleOrOwner","outputs":[{"internalType":"bool","name":"","type":"bool"}],"stateMutability":"view","type":"function"},{"inputs":[],"name":"owner","outputs":[{"internalType":"address","name":"","type":"address"}],"stateMutability":"view","type":"function"},{"inputs":[],"name":"pendingOwner","outputs":[{"internalType":"address","name":"","type":"address"}],"stateMutability":"view","type":"function"},{"inputs":[{"internalType":"address","name":"","type":"address"},{"internalType":"address","name":"","type":"address"}],"name":"poolByPair","outputs":[{"internalType":"address","name":"","type":"address"}],"stateMutability":"view","type":"function"},{"inputs":[],"name":"poolDeployer","outputs":[{"internalType":"address","name":"","type":"address"}],"stateMutability":"view","type":"function"},{"inputs":[],"name":"renounceOwnership","outputs":[],"stateMutability":"nonpayable","type":"function"},{"inputs":[],"name":"renounceOwnershipStartTimestamp","outputs":[{"internalType":"uint256","name":"","type":"uint256"}],"stateMutability":"view","type":"function"},{"inputs":[{"internalType":"bytes32","name":"role","type":"bytes32"},{"internalType":"address","name":"account","type":"address"}],"name":"renounceRole","outputs":[],"stateMutability":"nonpayable","type":"function"},{"inputs":[{"internalType":"bytes32","name":"role","type":"bytes32"},{"internalType":"address","name":"account","type":"address"}],"name":"revokeRole","outputs":[],"stateMutability":"nonpayable","type":"function"},{"inputs":[{"internalType":"uint16","name":"newDefaultCommunityFee","type":"uint16"}],"name":"setDefaultCommunityFee","outputs":[],"stateMutability":"nonpayable","type":"function"},{"inputs":[{"internalType":"uint16","name":"newDefaultFee","type":"uint16"}],"name":"setDefaultFee","outputs":[],"stateMutability":"nonpayable","type":"function"},{"inputs":[{"internalType":"address","name":"newDefaultPluginFactory","type":"address"}],"name":"setDefaultPluginFactory","outputs":[],"stateMutability":"nonpayable","type":"function"},{"inputs":[{"internalType":"int24","name":"newDefaultTickspacing","type":"int24"}],"name":"setDefaultTickspacing","outputs":[],"stateMutability":"nonpayable","type":"function"},{"inputs":[{"internalType":"address","name":"newVaultFactory","type":"address"}],"name":"setVaultFactory","outputs":[],"stateMutability":"nonpayable","type":"function"},{"inputs":[],"name":"startRenounceOwnership","outputs":[],"stateMutability":"nonpayable","type":"function"},{"inputs":[],"name":"stopRenounceOwnership","outputs":[],"stateMutability":"nonpayable","type":"function"},{"inputs":[{"internalType":"bytes4","name":"interfaceId","type":"bytes4"}],"name":"supportsInterface","outputs":[{"internalType":"bool","name":"","type":"bool"}],"stateMutability":"view","type":"function"},{"inputs":[{"internalType":"address","name":"newOwner","type":"address"}],"name":"transferOwnership","outputs":[],"stateMutability":"nonpayable","type":"function"},{"inputs":[],"name":"vaultFactory","outputs":[{"internalType":"contract IAlgebraVaultFactory","name":"","type":"address"}],"stateMutability":"view","type":"function"}]}