{"address":"0x85559Bb19Eb4835BCDbD0B114aE39e0F5dDD70dd","bytecode":"0x60a060405234801561001057600080fd5b5060405161014a38038061014a8339818101604052602081101561003357600080fd5b50516001600160a01b03811661004857600080fd5b6001600160a01b031660805260805160d8610072600039600081816058015260a9015260d86000f3fe6080604052348015600f57600080fd5b5060043610603c5760003560e01c80637570e389146041578063b7a854521460a5578063cbc48015146041575b600080fd5b607c60048036036020811015605557600080fd5b507f0000000000000000000000000000000000000000000000000000000000000000919050565b6040805173ffffffffffffffffffffffffffffffffffffffff9092168252519081900360200190f35b607c7f00000000000000000000000000000000000000000000000000000000000000008156fea164736f6c6343000814000a","abi":[{"inputs":[{"internalType":"address","name":"_algebraCommunityVault","type":"address"}],"stateMutability":"nonpayable","type":"constructor"},{"inputs":[{"internalType":"address","name":"","type":"address"}],"name":"createVaultForPool","outputs":[{"internalType":"address","name":"","type":"address"}],"stateMutability":"view","type":"function"},{"inputs":[],"name":"defaultAlgebraCommunityVault","outputs":[{"internalType":"address","name":"","type":"address"}],"stateMutability":"view","type":"function"},{"inputs":[{"internalType":"address","name":"","type":"address"}],"name":"getVaultForPool","outputs":[{"internalType":"address","name":"","type":"address"}],"stateMutability":"view","type":"function"}]}